:1000000004308A007C2C0000201054346F376710B5
:10001000F4346E10D425A039E13421003117543462
:10002000E536203AE134A035E83761370001321770
:10003000D8376110F43069106B34EF306E0033172D
:10004000C4376910CD2520103417453C693A0001AA
:100050004E346138201D20003117C4376910ED304F
:1000600074106B34E13A000132175434EF307400ED
:100070004E3461383A00D4253A00CD253A0020109C
:1000800020226F10E4306910ED3078103D103800F8
:100090002027E8306E104410E432203CE131203754
:1000A000E8306E00D4253A00CD253A00201020100B
:1000B000D4306F10D53965390000D4253A002010AE
:1000C000D8376110D43069104B34EF306E10D53909
:1000D000653900014E346137202220326510F83036
:1000E00063106E346137000020104E346138A02652
:1000F0004B10ED37691D0001CD253A002022EF3469
:10010000A0264B10743461376810E337EE332100BA
:100110002010D8376110743461376810E337EE333C
:100120002100D43069104B34EF306E10EB37203A99
:100130006F37203AE134000120104E346138A02698
:100140004B10ED37691D0001CD253A00202AE1371B
:10015000202A6B10743461376810E337EE332100C6
:100160002010D42520326110F4376E10F430E910DD
:1001700000008316880183126C0888008316091119
:10018000831209151030F700F70BC42800008316FE
:100190000911831209113130F700F70BCD28D0284F
:1001A00008008316091083120910ED016B08EC009A
:1001B000B920080064308400831300080319ED2877
:1001C0000630F800F701F70BE328F80BE2287B3044
:1001D000F700F70BE928800BE028080083160911C7
:1001E00083120911831609108312091083168910CE
:1001F000831289103830EB00D1200F30EB00D12072
:100200000130EB00D1200230E400DA200630EB00B0
:10021000D12008000130EB00D1200230E400DA20C8
:1002200008008030E600C030E7009430E800D430A9
:10023000E900663064078400831365080007EA005C
:10024000EB00D12008008316091083120914ED0178
:100250006708EC00B92008000B08E4008B13831634
:1002600003178C170C140000000083120313E41B07
:100270008B1703170C087F39031980290313E40037
:1002800003170D080313E50003170F080313E60017
:100290006408E7002321650803178D00031366082F
:1002A00003178F0003130B08E7008B138316031744
:1002B0008C170C140000000083120313E71B8B172C
:1002C00003170C0D0E0D7F39031980290313E40069
:1002D00003170D080313E50003170F080313E600C7
:1002E0006408E7002321650803178D0003136608DF
:1002F00003178F008D0A03198F0A03132C29031784
:10030000031308000A21E401E50111213B30031722
:100310008D0000308F0003132C210130E400E50133
:1003200011213D3003178D0000308F0003132C2165
:100330000230E400E50111213F3003178D00003049
:100340008F0003132C210330E400E5011121483014
:1003500003178D0000308F0003132C21E4010330BC
:10036000E50011210800FE30DC00FF30DE00DD007A
:10037000DF01DF1BBF295F08033C031CEC29831648
:10038000860183125C08860003105C0D013EDC00D0
:10039000831606168312061AD029DE01EC29EA29F3
:1003A000831686168312861AD9290130DE00EC29BD
:1003B000EA29831606178312061BE2290230DE00A3
:1003C000EC29EA29831686178312861BEA29033053
:1003D000DE00EC29DF0AB9295E0FEF291E2A5F082B
:1003E000E0000430E100F701F80160080310611833
:1003F000F707F70CF80CE118F707F70CF80C611980
:10040000F707F70CF80CE119F707F70CF80C611A6D
:10041000F707F70CF80CE11AF707F70CF80C611B5B
:10042000F707F70CF80CE11BF707F70CF80C5E0860
:100430007807223E840083130008DD005D08F80081
:100440000800E9016908073C031C482A6908680795
:10045000EB006B0803178D0083168C130C148312AA
:100460000C080313EA006A0F3E2A69086607840035
:100470008313671883178001482A462A690866078C
:1004800084008313671883176A088000E90A222A08
:1004900008006708FA006608840083137A18831737
:1004A0000008EA006908FA006808840083137A18D3
:1004B000831700086A02031D742A6708FA00660899
:1004C000840083137A1883178008031D6A2A00307A
:1004D000F8008C2A6708FA006608E60A0319E70A9A
:1004E000E80A0319E90A492A6708FA00660884003D
:1004F0008313671883170008EA006908FA00680880
:10050000840083136918831700086A0203188A2A73
:10051000FF308B2A0130F800080033304B0784008D
:1005200083138001E501E4016508003C031CC02A37
:10053000640803178D0083168C130C1483120C08A7
:10054000FF3C0319BA2A0313E7015C30E600640894
:10055000E8002122E7015C30E600E9013330E800E1
:100560004922F808031DB92A6408CD000130F800BB
:10057000C22A031710300313E4070318E50A942A6C
:100580000030F8000800CB01CC01E4016408073C0E
:10059000031CD62A333064078400831380013B3068
:1005A0006407840083138001E40AC62A08000A2134
:1005B0000130E400E5011121043003178D00003003
:1005C0008F0003132C210C30DC00FA30E400DA2019
:1005D000DC0BE52AC322CE01822108000A21E401B6
:1005E000E50111210E3003178D0000308F00031339
:1005F0002C210130E400E5011121173003178D0093
:1006000000308F0003132C210230E400E50111219A
:100610001F3003178D0000308F0003132C2103308F
:10062000E400E5011121283003178D0000308F0010
:1006300003132C2108000A210130E400E5011121F7
:100640002C3003178D0000308F0003132C21023053
:10065000E400E5011121343003178D0000308F00D4
:1006600003132C210330E400E50111213830031776
:100670008D0000308F0003132C2108008D22F80814
:10068000031D442BD722762B3B304C078400831369
:100690008001C31008304D07E400E7015C30E6003C
:1006A0006408E8002122E7015C30E600E9013B3004
:1006B000E8004922F808031D712B4608E7004508A9
:1006C000E600E9013330E8004922F808031D6B2BEE
:1006D000C314EE226C2B1B23C40AC3220130F80082
:1006E000732B0030F800F8080319D7228A110A1278
:1006F000F32C60085E07840083135F1883173208A9
:100700008000080003304B07DE00E4015E08E500CE
:1007100011213208E70023215D08DF005C08DE00BC
:100720004B08E0007923080003304C07DE0001305D
:10073000E4005E08E50011212A30E70023215D086E
:10074000DF005C08DE004C08E000792308000A2185
:10075000E401E5011121743003178D0000308F0092
:1007600003132C210130E400E50111217C30031733
:100770008D0000308F0003132C2143158A110A12BB
:10078000282DE10161085E07840083135F18831739
:1007900080080319F12B61086007E20061085E0719
:1007A000840083135F1883170008E3000B08F70029
:1007B0008B13620803178D000313630803178C0063
:1007C00083168C130C1555308D00AA308D008C14B7
:1007D0008C18E82B0C117708831203138B04E10AA1
:1007E000C22B6108073C031C112C61086007E20062
:1007F0000B08F7008B13620803178D00FF308C0085
:1008000083168C130C1555308D00AA308D008C1476
:100810008C18082C0C117708831203138B04E10A3F
:10082000F12B08000A210130E400E50111217E309E
:1008300003178D0000308F0003132C210830DC00DB
:10084000FA30E400DA20DC0B202C43110800C31539
:100850000330C400C3220A21E401E50111215D3007
:1008600003178D0000308F0003132C210130E400AA
:10087000E50111215F3003178D0000308F00031355
:100880002C210230E400E50111216A3003178D00AC
:1008900000308F0003132C21E4010330E500112107
:1008A0008A110A12522DC3220130CF000A21E4011D
:1008B000E5011121523003178D0000308F00031322
:1008C0002C210130E400E5011121543003178D0083
:1008D00000308F0003132C210230E400E5011121C8
:1008E000563003178D0000308F0003132C21E401D4
:1008F0000330E5001121080003081F39830043106D
:10090000C401C310CB01CC01CE014311CF01C311EF
:1009100083161F149F141F159F1107309C0083130B
:100920008312A001A1013130A2003230A300333084
:10093000A4004130A5003430A6003530A700363081
:10094000A8004230A9003730AA003830AB00393057
:10095000AC004330AD002A30AE003030AF00233061
:10096000B0004430B1003130C7003230C8003330FD
:10097000C900CA01C6014730C500D401D501D6015E
:10098000D701D801D901DA01DB01EE200A210030BC
:1009900083168800F030860081138312EE208221B6
:1009A000B3217808B200320FD62C972E3230E400F3
:1009B000DA20B3217808B200320FDF2C912E3208F2
:1009C000443C031DF42CC408031DF42C0130CE0755
:1009D0004E0BEF2C0130E4000330E50011214E08EE
:1009E000023C03193E2B122DC408031D042DCE0812
:1009F000031D042D4B08073C031C032DDD01333080
:100A0000DC008223CB0A122DC408031D122D4E0BCD
:100A1000122D4C08073C031C122DDD013B30DC007D
:100A20009423CC0A440B422DC318422D3208323C89
:100A3000031D212D4319212DC322C401CE01822182
:100A4000422D3208313C031D292D4319292DA72B96
:100A5000422D3208443C031D3B2D431D3B2D0830E5
:100A60004D07DC00DF013B30DE005C08E000C12305
:100A700012241B23422D431D422DDD013B30DC009F
:100A80009423CC0AC31C912E440B532D3208323CC4
:100A9000031D532DC319532D4319532DCF08031D87
:100AA000532D272CA72D4408033C031D9E2D3208EF
:100AB000443C031D9E2D8D22F8080319862DE70165
:100AC0003330E6004608E9004508E8004922F80806
:100AD0000319862DDF015430DE004D08E000C123EC
:100AE00008304D07DC00DF015430DE005C08E00018
:100AF000C1230A210130E400E501112188300317E8
:100B00008D0000308F0003132C21922D0A2101301B
:100B1000E400E5011121913003178D0000308F00B2
:100B200003132C210130C4000830DC00FA30E4004B
:100B3000DA20DC0B962DC311EE22A72D4408033CCE
:100B4000031DA72DDD013330DC008223CB0A440BCB
:100B5000B72D3208343C031DB72D4319B72DCE01F4
:100B6000C3114311CF01C322C4018221912E440B32
:100B7000D72D3208333C031DD72D4319D72D0A2119
:100B8000E401E50111219C3003178D0000308F0036
:100B900003132C210130E400E5011121A4300317D7
:100BA0008D0000308F0003132C214315912E440B30
:100BB000E82D3208443C031DE82D431DE82DDF01DC
:100BC0003B30DE000830E000C1231224EE22912EDB
:100BD000440BF22D431DF22DDD013B30DC0094234C
:100BE000CC0A912E440BFB2D3208313C031DFB2D0A
:100BF0005324C40A912E4408023C031D782E320867
:100C0000443C031D782ECF0A4F08033C031D2F2EB2
:100C100008305007DC005108DD000318DD0ADF0151
:100C20003B30DE005C08E000C1230A210130E40013
:100C3000E5011121A63003178D0000308F0003134A
:100C40002C210830DC00FA30E400DA20DC0B232E03
:100C50000130C400CC01C3114311CF01EE224F0873
:100C6000023C031D772E8D22531078185314531C09
:100C7000512E0A210130E400E5011121B0300317A3
:100C80008D0000308F0003132C210830DC00FA3077
:100C9000E400DA20DC0B472EC32253240130CF00BE
:100CA000772E0230CF00D1011030D0005108003C27
:100CB000031C6C2E500803178D0083168C130C1424
:100CC00083120C080313D200520F672E6C2E1030C3
:100CD000D0070318D10A562EDF013330DE0050084A
:100CE000E000C1230130E4000330E5001121912E22
:100CF0004408023C031D842E4F0B842EDD0133304B
:100D0000DC008223CB0A912E4408023C031D912E65
:100D10004F08023C031D912EDD013B30DC00942383
:100D2000CC0AB321780F912E3230E400DA20D02C97
:020D300063005E
:02400E00723FFF
:00000001FF
;PIC16F877A
;CRC=76E2  CREATED="16-Mar-19 15:53"
