:1000000005308A006B2D0000201054346F376710C4
:10001000F4346E10F435A039E13421004334E93270
:100020007510E4306910ED3078103D1038004E3412
:100030006137A0274B10E4322032613767106E34ED
:1000400061380000D4253A00CD253A003117C43775
:100050006910ED3074106B34E13A000132175434FA
:10006000EF3074004E3461383A0031175434E536BD
:10007000203AE134A035E837613700013217D8372C
:100080006110F43069106B34EF306E003317C437F1
:100090006910CD2520103417453C693A00014E34D3
:1000A0006138201D20002A004E346138A036613AA4
:1000B000A035E8307510ED376900CD253A00D43011
:1000C0006F10F43069106B34EF306E10D53965392C
:1000D0000001D4253A00CD253A00D4306F10F5390F
:1000E0006539203AE8306E34A0316F37E7100001EF
:1000F000CB37203AE832203AE137203AE8326D1027
:10010000D539653900012010202A6B10E430203ADF
:100110006F37203AE13421002022EF34A0264B1023
:10012000543461376810C337EE33210083168801D9
:1001300083125C0888008316091183120915103098
:10014000F700F70BA128000083160911831209118B
:100150003130F700F70BAA28AD28080083160910E4
:1001600083120910DD015B08DC0096200800553081
:100170008400831300080319CA280630F800F70129
:10018000F70BC028F80BBF287B30F700F70BC62809
:10019000800BBD28080083160911831209118316EC
:1001A00009108312091083168910831289103830C0
:1001B000DB00AE200F30DB00AE200130DB00AE20D4
:1001C0000230D500B7200630DB00AE208A110A12BB
:1001D000852D0130DB00AE200230D500B7200800AD
:1001E0008030D600C030D7009430D800D430D90049
:1001F000563054078400831355080007DA00DB00EB
:10020000AE2008008316091083120914DD01570877
:10021000DC00962008000B08D4008B13831603170C
:100220008C170C140000000083120313D41B8B17CF
:1002300003170C087F3903195F290313D400031730
:100240000D080313D50003170F080313D600540835
:10025000D7000221550803178D0003135608031712
:100260008F0003130B08D7008B13831603178C170B
:100270000C140000000083120313D71B8B17031705
:100280000C0D0E0D7F3903195F290313D4000317DA
:100290000D080313D50003170F080313D6005408E5
:1002A000D7000221550803178D00031356080317C2
:1002B0008F008D0A03198F0A03130B2903170313E9
:1002C00008000130D400D501F0200E3003178D0056
:1002D00000308F0003130B210230D400D501F02031
:1002E000173003178D0000308F0003130B21080017
:1002F000E9200130B9006121D401D501F02022307C
:1003000003178D0000308F0003130B21D40103303D
:10031000D500F0200800D801580855078400831341
:100320005618831780080319BB2958085707D900A6
:100330005808550784008313561883170008DA00FD
:100340000B08F7008B13590803178D0003135A0885
:1003500003178C0083168C130C1555308D00AA30B2
:100360008D008C148C18B2290C117708831203139A
:100370008B04D80A8C295808073C031CDB29580831
:100380005707D9000B08F7008B13590803178D0086
:10039000FF308C0083168C130C1555308D00AA305D
:1003A0008D008C148C18D2290C117708831203133A
:1003B0008B04D80ABB290800FE30C400FF30C600F9
:1003C000C500C701C71BE8294708033C031C152AC1
:1003D000831686018312440886000310440D013EF3
:1003E000C400831606168312061AF929C601152AB7
:1003F000132A831686168312861A022A0130C60033
:10040000152A132A831606178312061B0B2A02309D
:10041000C600152A132A831686178312861B132AF1
:100420000330C600152AC70AE229460F182A432AB4
:100430004708C8000430C900F701F8014808031054
:100440004918F707F70CF80CC918F707F70CF80C60
:100450004919F707F70CF80CC919F707F70CF80C4E
:10046000491AF707F70CF80CC91AF707F70CF80C3C
:10047000491BF707F70CF80CC91BF707F70CF80C2A
:1004800046087807C5004508F80008005508FA0036
:100490005408840083137A1883170008D80057087B
:1004A000FA005608840083137A188317000858024C
:1004B000031D712A5508FA005408840083137A1822
:1004C00083178008031D672A0030F800892A550821
:1004D000FA005408D40A0319D50AD60A0319D70A10
:1004E000462A5508FA0054088400831355188317C8
:1004F0000008D8005708FA005608840083135718DC
:100500008317000858020318872AFF30882A013011
:10051000F8000800D7015708073C031CB12A570808
:100520005607D900590803178D0083168C130C1435
:1005300083120C080313D800580FA72A5708540732
:1005400084008313551883178001B12AAF2A5708F6
:100550005407840083135518831758088000D70A5E
:100560008B2A0800E9206121D401D501F020243034
:1005700003178D0000308F0003130B210800E920C2
:100580000130D400D501F020043003178D00003075
:100590008F0003130B210830D400FA30D500B720A8
:1005A000D40BCD2A0800273037078400831380013D
:1005B0003130D0003230D1003330D200D301CF01FE
:1005C0005030CE00BB104F08D5004E08D400D701E4
:1005D0002730D6004622F8080319BB14C501C40110
:1005E0004508003C031C1C2B440803178D00831690
:1005F0008C130C1483120C08FF3C0319162B0313E5
:10060000D5014630D4004408D6008A22D5014630B0
:10061000D400D7012730D6004622F808031D152B39
:10062000B222B90A4408A6001F2B03171030031387
:10063000C4070318C50AF02ABF227821B7018A111E
:100640000A12AE2DE920D401D501F0203530031770
:100650008D0000308F0003130B210130D400D50131
:10066000F0203E3003178D0000308F0003130B2164
:100670000230D400D501F020463003178D00003041
:100680008F0003130B210330D400D501F0204F302D
:1006900003178D0000308F0003130B210800E920A1
:1006A0000130D400D501F020263003178D00003032
:1006B0008F0003130B210230D400D501F0202E301F
:1006C00003178D0000308F0003130B210330D4007B
:1006D000D501F020323003178D0000308F00031356
:1006E0000B210800B80127303807840083138001EC
:1006F0000800B70127303707840083138001722375
:1007000008002F3038078400831380010830260743
:10071000CC00D5014430D4004C08D6008A22D50143
:100720004430D400D7012F30D6004622F808031DEC
:10073000A12BBB1C9D2B22239E2B4F23B90A79236F
:10074000A42BBF22B222B8018A110A12B82D083098
:100750002607C400D6012F30D5004408D7008B21CE
:10076000E9200130D400D501F0208C3003178D0032
:1007700000308F0003130B210830C400FA30D5007D
:10078000B720C40BBE2BBB1CC72B2223C82B4F2367
:100790003B108A110A12C42D3C0BD52B0230BC0031
:1007A000D4000330D500F0205E2CBC01E9200130DC
:1007B000D400D501F020C5012730C400C7012F3077
:1007C000C600C901C8014908003C031C002CD50122
:1007D0004B30D4004808D6008A22D5014B30D400D3
:1007E0004508D7004408D6004622F808031DFB2B15
:1007F0000230F800372C1030C8070318C90AE32B61
:10080000C9011030C8004908003C031C192C4808D5
:1008100003178D0083168C130C1483120C0803131A
:10082000CA004A0F142C192C1030C8070318C90A23
:10083000032C4908003C031C352C4508D60044080D
:10084000D5004808D7008B2108304807D300490855
:10085000D4000318D40A4708D6004608D500530828
:10086000D7008B210130F800372C0030F8007808D1
:10087000BD0079233D0B442C6D3003178D000030F3
:100880008F0003130B21562CBD08031D4F2C78300D
:1008900003178D0000308F0003130B21562C83307B
:1008A00003178D0000308F0003130B210430C400A8
:1008B000FA30D500B720C40B582C22238A110A1213
:1008C000D12DE9200130D400D501F0205430031798
:1008D0008D0000308F0003130B21D401D501F020CF
:1008E0005D3003178D0000308F0003130B21D401FE
:1008F0000330D500F02008003B18BC2CBC08031DB9
:10090000BC2C3A08043C031D882C79237821BB2C8D
:100910003A08033C031D902C3B1472236124BB2C2A
:100920003A0BBB2C0130BC007923E920D401D5015E
:10093000F0205F3003178D0000308F0003130B2170
:100940000130D400D501F020693003178D0000304C
:100950008F0003130B210230D400D501F0206B303F
:1009600003178D0000308F0003130B210130D400DA
:100970000330D500F020312D3B1CE62CC5012F3073
:10098000C400C60103303807C7004608D400470832
:10099000D500F0203908013C0318D62C533003173A
:1009A0008D0000308F0003130B21DB2C30303A0711
:1009B000C700D70002213808440784008313451874
:1009C000831730303A078000B80A312D3C0B052DD3
:1009D000C5012730C4000130C60003303707C70007
:1009E0004608D4004708D500F02030303A07C70049
:1009F000D700022137084407840083134518831762
:100A000030303A078000B70A312D3C08023C031D04
:100A1000312DC5012F30C4000230C6000330380725
:100A2000C7004608D4004708D500F0203908013C2B
:100A30000318222D533003178D0000308F0003134D
:100A40000B21272D30303A07C700D7000221380884
:100A50004407840083134518831730303A07800019
:100A6000B80A8A110A122F2E3B18412D3A08023C6F
:100A7000031D3D2D79237821402D3B1472236124E1
:100A8000682DC5012F30C400C60103303807C700E8
:100A90004608D4004708D500F0203908013C031867
:100AA000592D533003178D0000308F0003130B2195
:100AB0005E2D30303A07C700D700022138084407BE
:100AC000840083134518831730303A078000B80A32
:100AD0008A110A12362E03081F398300B701B801A4
:100AE0000330B9003B10BC01BB1483161F149F14C4
:100AF0001F159F1107309C0083138312A001A101D1
:100B00000030831688008312CB2878213130C00052
:100B10003230C1003330C200C301D6014030D500AD
:100B2000D7018B21D6014030D5000830D7008B216A
:100B3000DC217808BA003A0F9E2D3C2E3230D500C9
:100B4000B720DC217808BA003A0FA72D392E3A08D1
:100B50000F3C031DAF2D390BAF2DD32A362E3A088B
:100B60000F3C031DB92D3908023C031DB92D812B03
:100B7000362E3A080F3C031DC52D3908033C031DD2
:100B8000C52D3B1CC52DA72B362E3A080F3C031D47
:100B9000D22D3908033C031DD22DBC080319D22DD8
:100BA000CC2B362E390BFC2DC5012730C400C601D5
:100BB00003303707C7004608D4004708D500F020A7
:100BC0003908013C0318EC2D533003178D00003019
:100BD0008F0003130B21F12D30303A07C700D700E7
:100BE00002213708440784008313451883173030E7
:100BF0003A078000B70A362E3908023C031D282E1A
:100C0000C5012F30C400C60103303807C7004608AD
:100C1000D4004708D500F0203908013C0318182EED
:100C2000533003178D0000308F0003130B211D2E4E
:100C300030303A07C700D700022138084407840043
:100C400083134518831730303A078000B80A362ED0
:100C50003908033C031D302EBB1C302E7C2C362E55
:100C60003908033C031D362EBB1C342DDC21780FC4
:0C0C7000362E3230D500B720982D6300DE
:02400E003A3F37
:00000001FF
;PIC16F877A
;CRC=19F2  CREATED="04-Mar-19 19:18"
