:1000000010308A00002800000A108A100A118207A6
:1000100007340F341F341F341F341F341F341F3470
:100020001F341F341F3400340034003400340034D3
:100030001C341E341F341F341F341F341F341F342C
:10004000003400340034003400341F341F341F34B3
:100050001F341F341F341F341F341F341E341C340C
:100060001F341F341F341F341F341F340F34073420
:100070001F341F341F340034003400341F341F3445
:100080001F341F341F341F341F341F341F341F34D8
:100090000A108A100A118207003401340234053430
:1000A0000334043401340234203403340734033479
:1000B000063406340234053403340334063406347B
:1000C0000234033403340434073403340734203453
:1000D000203407340734063406340334033404343C
:1000E0000034063406340534033404340134013456
:1000F0000734203420340734003406340234053405
:100100000334043400340634023403340334043436
:10011000203420342034203420342034201054342F
:100120006F376710F4346E10D425A039E134210004
:1001300031175434E536203AE134A035E8376137D9
:1001400000013217D8376110F43069106B34EF308A
:100150006E003317C4376910CD2520103417453C85
:10016000693A00014E346138201D20003117C43730
:100170006910ED3074106B34E13A000132175434D9
:10018000EF3074004E3461383A00D4253A00CD2562
:100190003A00201020226F10E4306910ED30781002
:1001A0003D1038002027E8306E104410E432203C27
:1001B000E1312037E8306E00D4253A00CD253A00F1
:1001C00020102010D4306F10D53965390000D425A7
:1001D0003A0020104E346138A0264B10ED37691DCF
:1001E0000001CD253A002022EF34A0264B107434B4
:1001F00061376810E337EE33210020104E34613848
:10020000A0264B10ED37691D0001CD253A002E00C8
:10021000D4253A00A025E837EE33A0316F10D53948
:1002200065392037E13721002010202169106B3417
:10023000EF30203AF237EE332014F3140001543437
:100240006F376710D4346E10C430EE332027E83097
:100250007000D53965393A00321800014334F53061
:10026000A0316F10D5292022613767104E346138D4
:1002700000012010D42520326110F4376E10F430C4
:10028000E9100001202AE137202A6B10743461370D
:100290006810E337EE3321002010C8327410C43ADE
:1002A000EE332036F537EE3300012010D8376110D9
:1002B000743461376810E337EE332100D4306910AD
:1002C0004B34EF306E10EB37203A6F37203AE13481
:1002D0000000AA014030A9001430A8000430A70093
:1002E0000330A6000430A5001930A4009030AC0003
:1002F0009830AB008A110A1669280830F80000000F
:100300000511831605110000D60D83128510031CFC
:100310008C2983168514831203189129831685105E
:100320008312831605158312051D9429F80B7F2966
:10033000000005118316051100008514000000005F
:1003400005158312051DA229F801000085187814EF
:1003500005118316051183128510831685108312EB
:100360000800831685140430F700F70BB52905152E
:100370000330F700F70BBA29831285108316851016
:100380000430F700F70BC2298312051183160511FB
:10039000D030D60083127D218316D60183127D21B1
:1003A0002A088316D60083127D2129088316D600D9
:1003B00083127D2128088316D60083127D21270809
:1003C0008316D60083127D2126088316D600831259
:1003D0007D2125088316D60083127D2124088316EB
:1003E000D60083127D212C088316D60083127D212E
:1003F0002B088316D60083127D21831685100000FA
:1004000005158312051D022A0430F700F70B062A92
:10041000092A0000831685140430F700F70B0E2A12
:1004200083128A110A166C28831688015E088312CB
:10043000880083160911831209151030F700F70B95
:100440001F2A000083160911831209113130F700A9
:10045000F70B282A2B2A080083160910831209108B
:100460008316DF015D08DE00831214220800D630F7
:1004700084008313000803194A2A0630F800F701A4
:10048000F70B402AF80B3F2A7B30F700F70B462A80
:10049000800B3D2A08008316091083120914831665
:1004A000DF015908DE0083121422080083160911A7
:1004B00083120911831609108312091083168910FB
:1004C0008312891038308316DD0083122C220F30FE
:1004D0008316DD0083122C2201308316DD00831287
:1004E0002C2202308316D600831237220630831660
:1004F000DD0083122C2240308316DD0083122C2273
:100500008316CE014E083F3C031C912A4E088312ED
:1005100004208316CF00D90083124B228316CE0A03
:10052000822A8312080001308316DD0083122C22F8
:1005300002308316D60083123722080080308316DB
:10054000D800C030D9009430DA00D430DB00D83085
:1005500056078400831357080007DC00DD00831270
:100560002C2208000B088316D60083128B138316E7
:1005700003178C170C14000000000313D61FC32AA6
:1005800083128B178316831203170C087F39031904
:10059000242B83160313D600831203170D0883162A
:1005A0000313D700831203170F0883160313D80011
:1005B0005608D90083124B2283165708831203175B
:1005C0008D00831603135808831203178F0003133B
:1005D0000B088316D90083128B13831603178C170D
:1005E0000C14000000000313D91FF92A83128B1783
:1005F0008316831203170C0D0E0D7F390319242B5C
:1006000083160313D600831203170D0883160313F2
:10061000D700831203170F0883160313D800560858
:10062000D90083124B2283165708831203178D00BB
:10063000831603135808831203178F008D0A0319BA
:100640008F0A0313B22A0317031308009322831699
:10065000D601D70183129E22C53003178D000030CA
:100660008F000313B22201308316D600D701831204
:100670009E22C73003178D0000308F000313B22273
:1006800002308316D600D70183129E22C930031789
:100690008D0000308F000313B22203308316D60082
:1006A000D70183129E22D23003178D0000308F00B5
:1006B0000313B2228316D6010330D70083129E2281
:1006C00008008316D9015908560784008313571868
:1006D000831780080319982B59085807DA0059081E
:1006E000560784008313571883170008DB00831212
:1006F0000B08F7008B1383165A08831203178D001B
:10070000831603135B08831203178C0083168C1364
:100710000C1555308D00AA308D008C148C188E2B42
:100720000C117708831203138B048316D90A632BE9
:100730005908073C031CBC2B59085807DA008312E0
:100740000B08F7008B1383165A08831203178D00CA
:10075000FF308C0083168C130C1555308D00AA3099
:100760008D008C148C18B22B0C1177088312031394
:100770008B048316D90A982B83120800F701F8011D
:100780008316520803105318F707F70CF80CD31808
:10079000F707F70CF80C5319F707F70CF80CD319F7
:1007A000F707F70CF80C531AF707F70CF80CD31AE5
:1007B000F707F70CF80C531BF707F70CF80CD31BD3
:1007C000F707F70CF80C83120800FE308316CE00F2
:1007D000FF30D000CF00D101D11BF22B5108033CD8
:1007E000031C272C86014E088312860003108316F3
:1007F0004E0D013ECE0006168312061A042C8316F7
:10080000D001272C232C8312831686168312861A76
:100810000F2C01308316D000272C232C8312831633
:1008200006178312061B1A2C02308316D000272CC1
:10083000232C8312831686178312861B242C0330E5
:100840008316D000272C83128316D10AEC2B500F6D
:100850002A2C382C5108D2000430D3008312BE2336
:100860008316500878072E3E840083130008CF00BB
:100870004F08F800831208008316540852078400BA
:1008800083135318831783123E0880000800033037
:1008900056078316D2005108D6005208D70083129B
:1008A0009E223E088316D90083124B2283165008DD
:1008B000D3004F08D200831256088316D400831247
:1008C0003C2408004F19AD2C3E08413C0319AD2CC7
:1008D0003E08423C0319AD2C3E08433C0319AD2CA5
:1008E0003E08443C0319862C3E08233C0319862C01
:1008F0005608073C031C852C8316D0013F30CF00DF
:100900004E08D10083124724D60AAD2C3E08233C62
:10091000031DA32CD6080319A22CD6032030BE0039
:100920008316D0013F30CF004E08D10083124724F8
:10093000033056078316CF004E08D6004F08D70065
:1009400083129E22AD2C4F15FF30BE00013083165E
:10095000D6000330D70083129E22080003305707C9
:100960008316D0000130D6005008D70083129E2293
:100970003E08203C031DC22C20308316D900831270
:100980004B22C72C2A308316D90083124B228316A0
:100990004F08D3004E08D200831257088316D400A4
:1009A00083123C2408004F1D172D3E08413C0319BB
:1009B000172D3E08423C0319172D3E08433C0319EE
:1009C000172D3E08443C0319F82C3E0FE82CF82C58
:1009D0003E08233C0319F82C5708073C031CF72C4E
:1009E0008316CF014730CE008312AE24D70A172DCD
:1009F0003E08233C031D132DD7080319122DD703DE
:100A00002030BE008316CF014730CE008312AE24C3
:100A1000033057078316CE000130D6004E08D700AA
:100A200083129E22172D3E08443C03194F160800DE
:100A30008316DB015B08073C031C422D5B085A0749
:100A4000DD005D08831203178D0083168C130C14D0
:100A500083120C0883160313DC005C0F382D5B082F
:100A6000580784008313591883178001422D402DA5
:100A70005B08580784008313591883175C088000AB
:100A8000DB0A1A2D8312080083165908FA00580849
:100A9000840083137A1883170008DC005B08FA00CF
:100AA0005A08840083137A18831700085C02031D18
:100AB000702D5908FA005808840083137A18831798
:100AC0008008031D662D0030F800882D5908FA00B3
:100AD0005808D80A0319D90ADA0A0319DB0A452D7E
:100AE0005908FA005808840083135918831700081E
:100AF000DC005B08FA005A08840083135B18831734
:100B000000085C020318862DFF30872D0130F800A5
:100B1000831208003F305607840083138001831638
:100B2000D701D6015708003C031CC62D5608831276
:100B300003178D0083168C130C1483120C08FF3CD2
:100B40000319BF2D83160313D901CE30D8005608E0
:100B5000DA00831218258316D901CE30D800DB01C4
:100B60003F30DA0083124425F808031DBE2D83169A
:100B700056088312D8000130F800C92D0317103031
:100B800083160313D6070318D70A922D0030F800F6
:100B90008312080093228316D601D70183129E2266
:100BA000983003178D0000308F000313B2220130FC
:100BB0008316D600D70183129E22A13003178D0021
:100BC00000308F000313B22202308316D600D70103
:100BD00083129E22A93003178D0000308F0003136B
:100BE000B22203308316D600D70183129E22B23080
:100BF00003178D0000308F000313B2220800083065
:100C00008316D7007708D8008514000005158312D5
:100C1000051D082E85180314851C0310F80D00000F
:100C200083160511831205118316D70B042E851424
:100C300000008312851083165808031D85100000DC
:100C400005158312051D222E0000051183160511BE
:100C500000008312851083168510831208009322EA
:100C600001308316D600D70183129E22B6300317B7
:100C70008D0000308F000313B22202308316D6009D
:100C8000D70183129E22BE3003178D0000308F00E3
:100C90000313B22203308316D600D70183129E229B
:100CA000C23003178D0000308F000313B2220800FA
:100CB000D601D7018316D6015608073C031C6C2EBB
:100CC0003F30560784008313800147305607840065
:100CD00083138001D60A5C2E831208008A25F80847
:100CE00003194B2F47305707840083138001CF101F
:100CF000083058078316D600D901CE30D8005608E0
:100D0000DA00831218258316D901CE30D800DB0112
:100D10004730DA0083124425F808031D462F510896
:100D20008316D900831250088316D800DB013F30A8
:100D3000DA0083124425F808031DA12ECF14CA251A
:100D4000422FCF16831685140430F700F70BA62E1A
:100D500005150330F700F70BAB2E831285108316B1
:100D600085100430F700F70BB32E8312051183169C
:100D70000511D030D60083127D218316D60183124F
:100D80007D21831685140430F700F70BC52E051559
:100D90000330F700F70BCA2E8312051DCD2E8510E8
:100DA000831685100430F700F70BD42E831205113B
:100DB00083160511D130D60083127D210130F70052
:100DC000FF257808AA000130F700FF257808A90060
:100DD0000130F700FF257808A8000130F700FF2553
:100DE0007808A7000130F700FF257808A600013039
:100DF000F700FF257808A5000130F700FF257808E7
:100E0000A4000130F700FF257808AC00F701FF25AA
:100E10007808AB0083168510000005158312051DA8
:100E20000F2F0430F700F70B132F162F0000831637
:100E300085140430F700F70B1B2F013083122807AD
:100E4000E00001302907E10001302A07E20001300B
:100E50002607E30001302507E40001302407E50000
:100E6000E6018316D7016030D600F830D80083122F
:100E700061238316D7013F30D600F030D8008312AB
:100E800061232F2658260130F800482F0030F80043
:100E9000F808031D4E2F0030F800502F0130F800E5
:100EA0008A110A16CA28932201308316D600D70168
:100EB00083129E228E3003178D0000308F000313A3
:100EC000B2220C308316CE00FA30D60083123722BD
:100ED0008316CE0B642F831226238A110A16D32879
:100EE00083164F08D6005008D70083129E2283161F
:100EF000D1015108053C031C9D2F5108033C031DE3
:100F00008A2F01304F07D200D6005008D700831235
:100F10009E2283164E08D2000630D3008312BE23D1
:100F2000831651087807831248208316D200D9000F
:100F300083124B228316D10A792F83128A110A1643
:100F40000B29582693228316D601D70183129E229D
:100F5000DC3003178D0000308F000313B222013004
:100F60008316D600D70183129E22DE3003178D0030
:100F700000308F000313B22202308316D600D7014F
:100F800083129E22E03003178D0000308F00031380
:100F9000B2228316D6010330D70083129E220800A6
:100FA0000130D9005826A1274F118A110A16AF2AFD
:100FB0000230D9004F115826582693220330831649
:100FC000D600D70183129E22E73003178D00003030
:100FD0008F000313B2228A110A163F2983165E0876
:100FE000840083135F188317600880008312080051
:101000008316CF011030CE00CF08031D5D294E0896
:10101000F83C031C5D294E08831203178D008316CC
:101020008C130C1483120C08FF3C031956298316E9
:101030000313D3010830D200831221088316D50090
:10104000831220088316D400D408031D2A28D5084B
:1010500003192529540884008313551883170008A1
:10106000DA00DA1B182954088400831355188317F3
:10107000D308031D182952080002031C182954081C
:101080008400831355188317D9010008D800033052
:101090005207F8005308FA000318FA0A7A085902AE
:1010A000031C0329031D5828580878020318032934
:1010B00052085802DA005908DB005308031C530F8A
:1010C000DB020330DA020030031C0130DB020330A4
:1010D0005407DC005508DD000318DD0A5208DC0760
:1010E00053080318530FDD075B08DF005A08DE00C2
:1010F0005D08E1005C08E0006108E3006008E200D0
:10110000620884008313631883175E08800001302F
:1011100062078400831363188317840A80018403A1
:1011200080016208F8006308F9007908D7007808A0
:10113000D6005508DB005408DA005708DD005608D1
:10114000DC0001305A07840083135B188317840A7C
:101150000008DF0084030008DE00DE08031DBE284F
:10116000DF08031DBE2801305C07840083135D186F
:101170008317840A800184038001E22801305C0720
:10118000F8005D08FA000318FA0A7808DE007A0809
:10119000DF0001305A07840083135B188317840A29
:1011A0000008FA0084030008E0007A08E1005E0805
:1011B000840083135F188317840A61088000840306
:1011C0006008800001305A07840083135B1883177E
:1011D000840A5D08800084035C0880007F30520729
:1011E000DA005308DB000318DB0A5508DF00540857
:1011F000DE005B08E1005A08E0008A118312EE2746
:101200008A15162983167F305807DA005908DB0043
:101210000318DB0A5508DF005408DE005B08E10014
:101220005A08E0008A118312EE278A1583162529B1
:10123000013054078400831355188317840A00086B
:10124000D50084030008D4002428D408031D3029C5
:10125000D508031D30290030F800F9003929392953
:1012600003305407F8005508FA000318FA0A7A0800
:10127000F9007908D1007808D0005108D900500849
:10128000D8004E08DA008A11831218258A15031037
:101290005F0DA03E84008313840A831651088000EA
:1012A0008403500880008312DF0A0317103083166E
:1012B0000313CE070318CF0A042883128A110A16D3
:1012C000452983165508F801540203186A29540861
:1012D000F7007629F7010830D600D40DF70D550830
:1012E00077020318F700F80DD60B6D29831208005A
:1012F000013083164F07D300D4000A30D500831283
:10130000612178088316D00001304F07D300D40044
:101310000A30D5008312612177088316D1004F0867
:10132000D4000330D5008312612177088316D200E0
:10133000D600D7018A1183129E228A158316D008FF
:10134000031DAC2930305107D200D9008A11831215
:101350004B228A15BD29831630305007D200D900A0
:101360008A1183124B228A15303083165107D2001E
:10137000D9008A1183124B228A15073003178D007A
:1013800001308F008A110313B2228A1583164F0889
:10139000D200D3010310520DA03E84008313840AAF
:1013A0000008D50084030008D40053085407F8004F
:1013B0005508FA000318FA0A7808840083137A188B
:1013C000831780080319052A0310520DA03E8400DC
:1013D0008313840A0008D50084030008D40053084E
:1013E0005407F8005508FA000318FA0A7808840030
:1013F00083137A1883170008D400D9008A11831246
:101400004B228A158316D30ACA290330D600D70186
:101410008A1183129E228A15083003178D0001302D
:101420008F008A110313B2228A150800DF08031DFA
:101430002A2A8316D601D7018A1183129E228A1581
:101440000A3003178D0001308F008A110313B22276
:101450008A15572A5F085C020318572A8A119322BB
:101460008A155C08DD0003305C075F020318422A1E
:101470005F088316D4000330D500831261217708FA
:10148000DC07442A0330DC075D088316CE00831294
:101490005C0883164E020318542A4E08CF008312AC
:1014A00078218316CE0A472A83125D08DE000800E1
:1014B0008A1158268A150330D9004F158A119322B4
:1014C0008A158316D601D7018A1183129E228A15A6
:1014D000FD3003178D0000308F008A110313B222F4
:1014E0008A1501308316D600D7018A1183129E22F5
:1014F0008A15053003178D0001308F008A11031300
:10150000B2228A158A110A16AF2A8A1158268A151C
:10151000D9014F11CF118A11CA258A1508008316E7
:10152000D008031D982AD108031D982AA62BC62A85
:1015300003305002D2005108D3000030031C0130A8
:10154000D302520884008313531883170008D6006F
:10155000D61FC32A520884008313531883177F3081
:101560000002D400D5015308DF005208DE00550800
:10157000E1005408E0008A118312EE278A158316D1
:10158000D101D001C62AD101D001A62B8312210896
:101590008316D700831220088316D600D608031DB1
:1015A000D42AD7080319A62B56088400831357188A
:1015B00083170008DE00DE1B972B56088400831378
:1015C00057188317DB010008DA0001305607840042
:1015D000831357188317840A0008D900840300086E
:1015E000D800580884008313591883170008DE00B8
:1015F000DE1B882B5A085607DE005708DF005B0801
:1016000003185B0FDF0703305E07F8005F08FA007E
:101610000318FA0A78085802031D882B7A08590221
:10162000031D882B58088400831359188317DD0184
:101630000008DC0003305C07F8005D08FA000318BE
:10164000FA0A7808DA077A0803187A0FDB075908CC
:10165000DF005808DE00831221088316E1008312A0
:1016600020088316E00001306007840083136118AE
:101670008317840A0008E30084030008E2005E0880
:101680006202031D472B5F0863020319542B0130CC
:1016900060078400831361188317840A0008E1003F
:1016A00084030008E000332B01306007F800610874
:1016B000FA000318FA0A7808E2007A08E300013019
:1016C0005E07840083135F188317840A0008FA00FA
:1016D00084030008E4007A08E500620884008313AC
:1016E00063188317840A65088000840364088000F7
:1016F000DF01DE015708DF005608DE005B08E1006D
:101700005A08E0008A118312EE278A15952B83165A
:10171000013056078400831357188317840A000882
:10172000D70084030008D6008312A42B831601304F
:1017300056078400831357188317840A0008D700BC
:1017400084030008D60083128316CE2A83128A11DE
:101750000A164D2C8A1193228A1501308316D60061
:10176000D7018A1183129E228A15F33003178D0048
:1017700000308F008A110313B2228A1508308316B5
:10178000CE00FA30D6008A11831237228A158316CA
:10179000CE0BC12B831208008A1193228A1583165F
:1017A000D601D7018A1183129E228A15E9300317C8
:1017B0008D0000308F008A110313B2228A15013088
:1017C0008316D600D7018A1183129E228A15F13022
:1017D00003178D0000308F008A110313B2228A157F
:0617E0008A110A16E12C3B
:1020000003081F3983004F10CF10D601D7014F119D
:10201000CF11D901DA014F12DB01DC01DD01DE0154
:10202000DF01CF12FF30E80083161F149F141F1525
:102030009F1107309C008312A1016930A0000B3072
:10204000E900EB01E630EA0007308316E6000130D4
:10205000E8001030E7005D30831203179000013074
:102060009200903091005D308316900092019101B2
:10207000831203138313A201A3013130AE00323067
:10208000AF003330B0004130B1003430B2003530F1
:10209000B3003630B4004230B5003730B6003830C7
:1020A000B7003930B8004330B9002A30BA003030B8
:1020B000BB002330BC004430BD003130D200323090
:1020C000D3003330D400D501D1015230D0000A12F0
:1020D00069290A160A12B1290A168316C101C2011A
:1020E000C301C401C501C601C701C8010A12831298
:1020F00056220A160A1293220A1600308316880006
:10210000F030860081130A12831256220A160A1230
:1021100026230A1631308316CA003230CB00333002
:10212000CC00CD01D701CA30D600D8010A128312E3
:1021300061230A168316D701CA30D6000830D800AA
:102140000A12831261230A160A12E5230A16780876
:10215000BE003E0FAC28372D32308316D6000A124F
:10216000831237220A160A12E5230A167808BE00DF
:102170003E0FBB28372D4F182C298316CE010A128B
:10218000831262240A160A12D3240A164F1EDA2872
:102190000A126E2E0A16F8080319D1284F14DB0113
:1021A000D5280A12532F0A16DB0A0A1258260A16D5
:1021B0004F114F125B08033C031D2B290A12932277
:1021C0000A1601308316D600D7010A1283129E2206
:1021D0000A16143003178D0001308F000A12031302
:1021E000B2220A1668106808831687008312071443
:1021F0008316BF010530BE00BE08031D0229BF08BB
:1022000003191D293E08CE000230CF000830D0004F
:102210000A128312702F0A1604308316CE00FA3089
:10222000D6000A12831237220A168316CE0B0F2904
:102230003E080319BF03BE03FC2883126810680818
:1022400083168700831207100A1293220A160A12B5
:1022500026230A16DB01262DCF1CD42CD908031DFA
:10226000B02A3E08313C031D39290A12D02F0A1624
:10227000AF2A3E08323C031D4D290A12D82F0A16F8
:10228000DC01DF010A128A1500280A168A110A12D7
:102290008A1516220A168A11AF2A3E08333C031DFE
:1022A00057290A128A15582A0A168A11AF2A3E0897
:1022B000343C031D65290A1258260A16D9014F110C
:1022C0004F100A1226230A16AF2A3E08353C031D7A
:1022D000AF2A0530D9000A1293220A168316D601B6
:1022E000D7010A1283129E220A161F3003178D008F
:1022F00001308F000A120313B2220A16CF1E9C2A45
:102300008316D9013F30D800F030DA000A12831268
:1023100018250A168316D9016030D800F830DA0083
:102320000A12831218250A1601308316D600D70127
:102330000A1283129E220A16293003178D000130DB
:102340008F000A120313B2220A168316BF01BE01C0
:102350003F303E07840083133F188317800803191A
:10236000C9293F08FA003E08BE0A0319BF0ACE0079
:102370007A08CF003F304E07840083134F1883172D
:102380000008D000D9000A1283124B220A168316C5
:10239000A8290230D6000430D7000A1283129E22E8
:1023A0000A1601306002F700F70E0F30F7057708C4
:1023B000303E8316CE00D9000A1283124B220A1631
:1023C000013060020F39303E8316CE00D9000A1268
:1023D00083124B220A1620308316D9000A12831268
:1023E0004B220A1601306102F700F70E0F30F70595
:1023F0007708303E8316CE00D9000A1283124B2292
:102400000A16013061020F39303E8316CE00D90022
:102410000A1283124B220A1620308316D9000A12A0
:1024200083124B220A1601306202F700F70E0F30BA
:10243000F7057708303E8316CE00D9000A128312C2
:102440004B220A16013062020F39303E8316CE004D
:10245000D9000A1283124B220A1603308316D600C3
:102460000430D7000A1283129E220A16013063023A
:10247000F700F70E0F30F7057708303E8316CE00D1
:10248000D9000A1283124B220A16013063020F3957
:10249000303E8316CE00D9000A1283124B220A1650
:1024A00020308316D9000A1283124B220A160130FB
:1024B0006402F700F70E0F30F7057708303E8316F9
:1024C000CE00D9000A1283124B220A160130640290
:1024D0000F39303E8316CE00D9000A1283124B22E8
:1024E0000A1620308316D9000A1283124B220A16CC
:1024F0002C3003178D0001308F000A120313B22213
:102500000A1601306502F700F70E0F30F70577085D
:10251000303E8316CE00D9000A1283124B220A16CF
:10252000013065020F39303E8316CE00D9000A1201
:1025300083124B220A16AF2ACF1AAF2A0130831614
:10254000D600D7010A1283129E220A162E300317D4
:102550008D0001308F000A120313B2220A16D12C0B
:10256000590BAC2BCF19092B3E08443C031DF82A0C
:102570000A128A250A168316491078184914491C2C
:10258000EB2A0A12831293220A1601308316D60010
:10259000D7010A1283129E220A16393003178D00C2
:1025A00001308F000A120313B2220A160830831674
:1025B000CE00FA30D6000A12831237220A1683168A
:1025C000CE0BD92A0A12831258260A160A12A127FC
:1025D0000A16F72A83168312CF154F15013083167A
:1025E000D6000330D7000A1283129E220A16082B47
:1025F0003E08433C031D022B0A128A1585220A1647
:102600008A11082B8316CE010A12831262240A163D
:10261000AB2B3E08443C031D9E2BD70803199D2B72
:102620008316BF011030BE00BF08031D2F2B3E08CC
:10263000F83C031C2F2B3E08831203178D008316D2
:102640008C130C1483120C0883160313C000400F64
:102650002A2B2F2B1030BE070318BF0A142BBF08DC
:10266000031D782B3E08F83C031C782BD7013F3024
:10267000D6003E08D8000A12831261230A160830D9
:1026800083163E07CE003F08CF000318CF0AD701BC
:102690004730D6004E08D8000A12831261230A166A
:1026A0000A1293220A1601308316D600D7010A12A5
:1026B00083129E220A16423003178D0001308F00CC
:1026C0000A120313B2220A1608308316CE00FA301B
:1026D000D6000A12831237220A168316CE0B672BF6
:1026E0008312D901CF110A12CA250A169D2B83160F
:1026F0000A12831293220A1601308316D600D701DC
:102700000A1283129E220A164C3003178D000130E4
:102710008F000A120313B2220A1604308316CE0069
:10272000FA30D6000A12831237220A168316CE0B0D
:10273000902B0A128312CA250A16AB2B3E08433C83
:10274000031DA82B0A128A1585220A168A11AB2BA3
:102750000A12D3240A16D12C5908023C031D952CC9
:102760003E08443C031D212C0A128A250A16F8084B
:102770000319FB2B8316D9013F30D800831251086F
:102780008316DB00831250088316DA000A128312C4
:1027900044250A16F8080319FB2B8316D701C1300C
:1027A000D600831258088316D8000A1283126123B8
:1027B0000A16083058078316CE00D701C130D6005C
:1027C0004E08D8000A12831261230A160A129322B5
:1027D0000A1601308316D600D7010A1283129E22F0
:1027E0000A16553003178D0001308F000A120313AB
:1027F000B2220A160F2C0A1293220A1601308316EF
:10280000D600D7010A1283129E220A165E300317E1
:102810008D0001308F000A120313B2220A16D9016B
:1028200008308316CE00FA30D6000A1283123722FF
:102830000A168316CE0B132C0A128312CA250A1607
:10284000922C3E08433C031D562C0A128A15852201
:102850000A168A118316BF01BE01BF08031D542C3E
:102860003E08093C031C542C03103E0DF9003F0D9B
:10287000FA007908A03E840083137A188317840A2B
:102880000008CF0084030008CE004F08D1004E0896
:10289000D0000A128A1583128F2A0A168A1183160B
:1028A000BE0A0319BF0A2D2C932C83123E08423C0A
:1028B000031D602C0A128A1516220A168A11922C00
:1028C0003E08413C031D8B2CDE0803198A2C0A129A
:1028D00093220A1603305E028316BE00BF01BF08B2
:1028E000031D852C83125E0883163E020318852C77
:1028F0003E08CF000A128A15831278210A168A111F
:102900008316BE0A0319BF0A6F2C83125E08DC000F
:102910000330DE02922C03308316CE000A1283129B
:1029200062240A168316D22C83125908033C031D15
:10293000C42C3E08443C031DB62C47305707840086
:10294000831380018316D7014730D6000830D800A2
:102950000A12831261230A160A128A15AA230A167A
:102960008A11D9010A12CA250A16C32C3E08433C13
:10297000031DC02C0A128A1585220A168A11C32C3F
:102980000A12D3240A16D12C5908053C031DD12C58
:102990003E08433C031DD12C0A128A1585220A16D3
:1029A0008A118316272D8312DA08031DF52C3E08A1
:1029B000313C031DE72C0A1258260A160A128A1502
:1029C000CC2B0A168A114F150130DA00F42C3E0880
:1029D000323C031DF42C0A1258260A16DA014F1154
:1029E0004F100A1226230A16262D5A0B262D3E08B2
:1029F000443C031D172D4730570784008313800183
:102A0000083058078316CE00D7014730D6004E084D
:102A1000D8000A12831261230A160A128A15AA2301
:102A20000A168A110A122F260A16DA01262D3E08E6
:102A3000433C031D232D0A1258260A16DA010A12F6
:102A40002F260A16262D0A12D3240A1683160A12D6
:102A50008312E5230A16780F2E2D302D8316272D8D
:102A600032308316D6000A12831237220A16A4289F
:022A7000630001
:02400E00723FFF
:00000001FF
;PIC16F877A
;CRC=C18C  CREATED="03-Apr-19 15:01"
