:020000040000FA
:1000000003308A008A2B0000201054346F376710A9
:10001000F4346E10D425A039E13421003117543462
:10002000FF3FFF3FFF3FFF3FFF3FFF3FFF3FFF3FE0
:10003000D8376110F43069106B34EF306E0033172D
:10004000C4376910CD2520103417453C693A0001AA
:100050004E346138201D20003117C4376910ED304F
:1000600074106B34E13A000132175434EF307400ED
:100070004E3461383A00D4253A00CD253A0020109C
:1000800020226F10E4306910ED3078103D103800F8
:100090002027E8306E104410E432203CE131203754
:1000A000E8306E0083168801831264088800831686
:1000B0000911831209151030F700F70B5D280000B5
:1000C00083160911831209113130F700F70B6628E6
:1000D000692808008316091083120910E5016308D6
:1000E000E400522008005C308400831300080319E8
:1000F00086280630F800F701F70B7C28F80B7B28E0
:100100007B30F700F70B8228800B792808008316D4
:10011000091183120911831609108312091083161D
:10012000FF3FFF3FFF3FFF3FFF3FFF3FFF3FFF3FDF
:100130006A200130E3006A200230DC0073200630C0
:10014000E3006A208A110A12D02B0130E3006A20F2
:100150000230DC00732008008030DE00C030DF0099
:100160009430E000D430E1005E305C0784008313FB
:100170005D080007E200E3006A200800831609100A
:1001800083120914E5015F08E400522008000B08FF
:10019000DC008B13831603178C170C14000000006F
:1001A00083120313DC1B8B1703170C087F39031909
:1001B0001B290313DC0003170D080313DD000317CD
:1001C0000F080313DE005C08DF00BE205D08031784
:1001D0008D0003135E0803178F0003130B08DF0065
:1001E0008B13831603178C170C1400000000831266
:1001F0000313DF1B8B1703170C0D0E0D7F3903192B
:100200001B290313DC0003170D080313DD0003177C
:100210000F080313DE005C08DF00BE205D08031733
:10022000FF3FFF3FFF3FFF3FFF3FFF3FFF3FFF3FDE
:100230000313C728031703130800A520DC01DD0101
:10024000AC203B3003178D0000308F000313C72014
:100250000130DC00DD01AC203D3003178D000030A3
:100260008F000313C7200230DC00DD01AC203F30DB
:1002700003178D0000308F000313C7200330DC000C
:10028000DD01AC20483003178D0000308F000313D0
:10029000C720DC010330DD00AC200800D70157087F
:1002A00054078400831355188317800803197E2987
:1002B00057085607D8005708540784008313551869
:1002C00083170008D9000B08F7008B135808031791
:1002D0008D000313590803178C0083168C130C151B
:1002E00055308D00AA308D008C148C1875290C1196
:1002F0007708831203138B04D70A4F295708073C4A
:10030000031C9E2957085607D8000B08F7008B13CB
:10031000580803178D00FF308C0083168C130C15C2
:10032000FF3FFF3FFF3FFF3FFF3FFF3FFF3FFF3FDD
:100330007708831203138B04D70A7E290800FE3046
:10034000D400FF30D600D500D701D71BAB29570802
:10035000033C031CD82983168601831254088600A7
:100360000310540D013ED400831606168312061A9C
:10037000BC29D601D829D629831686168312861A57
:10038000C5290130D600D829D6298316061783122D
:10039000061BCE290230D600D829D6298316861707
:1003A0008312861BD6290330D600D829D70AA5295F
:1003B000560FDB290A2A5708D8000430D900F70164
:1003C000F801580803105918F707F70CF80CD9185A
:1003D000F707F70CF80C5919F707F70CF80CD919AF
:1003E000F707F70CF80C591AF707F70CF80CD91A9D
:1003F000F707F70CF80C591BF707F70CF80CD91B8B
:10040000F707F70CF80C56087807223E8400831390
:100410000008D5005508F8000800E1016108073C14
:10042000FF3FFF3FFF3FFF3FFF3FFF3FFF3FFF3FDC
:1004300083168C130C1483120C080313E200620F52
:100440002A2A61085E07840083135F1883178001DE
:10045000342A322A61085E07840083135F188317E9
:1004600062088000E10A0E2A08005F08FA005E08B0
:10047000840083137A1883170008E2006108FA00E9
:100480006008840083137A18831700086202031D32
:10049000602A5F08FA005E08840083137A188317C5
:1004A0008008031D562A0030F800782A5F08FA00F9
:1004B0005E08DE0A0319DF0AE00A0319E10A352A99
:1004C0005F08FA005E08840083135F188317000832
:1004D000E2006108FA006008840083136118831742
:1004E000000862020318762AFF30772A0130F800EC
:1004F000080033304B07840083138001DD01DC01E9
:100500005D08003C031CAC2A5C0803178D008316B1
:100510008C130C1483120C08FF3C0319A62A031336
:10052000FF3FFF3FFF3FFF3FFF3FFF3FFF3FFF3FDB
:10053000DE00E1013330E0003522F808031DA52A72
:100540005C08CD000130F800AE2A03171030031309
:10055000DC070318DD0A802A0030F8008A110A122D
:10056000192CCB01CC01DC015C08073C031CC42A1C
:1005700033305C078400831380013B305C078400C8
:1005800083138001DC0AB42A0800A5200130DC00B6
:10059000DD01AC20043003178D0000308F00031301
:1005A000C7200C30D400FA30DC007320D40BD32ADF
:1005B000B122CE011D2108003B304C07840083137B
:1005C000800108304D07DC00DF015430DE005C089C
:1005D000E0000D22DF015430DE00E1013B30E0009D
:1005E0003522F808031D532B4608DF004508DE00BE
:1005F000E1013330E0003522F808031D2C2BA52043
:10060000DC01DD01AC200E3003178D0000308F00BF
:100610000313C7200130DC00DD01AC2017300317C5
:10062000FF3FFF3FFF3FFF3FFF3FFF3FFF3FFF3FDA
:10063000AC201F3003178D0000308F000313C7203C
:100640000330DC00DD01AC20283003178D000030C2
:100650008F000313C7204E2BA5200130DC00DD01E5
:10066000AC202C3003178D0000308F000313C720FF
:100670000230DC00DD01AC20343003178D00003087
:100680008F000313C7200330DC00DD01AC203830BD
:1006900003178D0000308F000313C720C40AB12256
:1006A0000130F800552B0030F8008A110A121F2C77
:1006B00058085607840083135718831732088000A0
:1006C000080003304B07D600DC015608DD00AC20E3
:1006D0003208DF00BE205508D7005408D6004B086A
:1006E000D80058238A110A12312C03304C07D60047
:1006F0000130DC005608DD00AC202A30DF00BE20CF
:100700005508D7005408D6004C08D80058238A1141
:100710000A12402C03081F3983004310C401C31080
:10072000FF3FFF3FFF3FFF3FFF3FFF3FFF3FFF3FD9
:1007300007309C0083138312A001A1013130A20075
:100740003230A3003330A4004130A5003430A6007D
:100750003530A7003630A8004230A9003730AA0053
:100760003830AB003930AC004330AD002A30AE0039
:100770003030AF002330B0004430B1003130C7001A
:100780003230C8003330C900CA01C6014730C50045
:10079000003083168800F03086008113831287288A
:1007A0001D213130CF003230D0003330D100D201A2
:1007B000D5014F30D400D6014E21D5014F30D400A1
:1007C0000830D6004E216430DC00732003178D0101
:1007D00083168C130C1483120C080313D300DC0152
:1007E000DD01AC205308DF00BE209F217808B20055
:1007F000320FFB2B472C3230DC0073209F2178080E
:10080000B200320F042C412C3208443C031D232C2F
:10081000C408031D232C0130CE074E0B142C0130CD
:10082000FF3FFF3FFF3FFF3FFF3FFF3FFF3FFF3FD8
:10083000792AF808031D1E2CC522222CDC2AF80870
:100840000319C522412CC408031D332CCE08031DF7
:10085000332C4B08073C031C322CD5013330D40019
:10086000612BCB0A412CC408031D412C4E0B412C9B
:100870004C08073C031C412CD5013B30D400752BA0
:10088000CC0A9F21780F412C3230DC007320F52BED
:100890006300FF3FFF3FFF3FFF3FFF3FFF3FFF3F43
:1008A000FF3FFF3FFF3FFF3FFF3FFF3FFF3FFF3F58
:1008B000FF3FFF3FFF3FFF3FFF3FFF3FFF3FFF3F48
:1008C000FF3FFF3FFF3FFF3FFF3FFF3FFF3FFF3F38
:1008D000FF3FFF3FFF3FFF3FFF3FFF3FFF3FFF3F28
:02400E00723FFF
:08400000FF3FFF3FFF3FFF3FC0
:00000001FF
