:020000040000FA
:10000000FF3FFF3FFF3FFF3FFF3FFF3FFF3FFF3F00
:1000100007340F341F341F341F341F341F341F3470
:100020001F341F341F3400340034003400340034D3
:100030001C341E341F341F341F341F341F341F342C
:10004000003400340034003400341F341F341F34B3
:100050001F341F341F341F341F341F341E341C340C
:100060001F341F341F341F341F341F340F34073420
:100070001F341F341F340034003400341F341F3445
:100080001F341F341F341F341F341F341F341F34D8
:100090000A108A100A118207003401340234053430
:1000A0000334043401340234203403340734033479
:1000B000063406340234053403340334063406347B
:1000C0000234033403340434073403340734203453
:1000D000203407340734063406340334033404343C
:1000E0000034063406340534033404340134013456
:1000F0000734203420340734003406340234053405
:10010000FF3FFF3FFF3FFF3FFF3FFF3FFF3FFF3FFF
:10011000203420342034203420342034201054342F
:100120006F376710F4346E10D425A039E134210004
:1001300031175434E536203AE134A035E8376137D9
:1001400000013217D8376110F43069106B34EF308A
:100150006E003317C4376910CD2520103417453C85
:10016000693A00014E346138201D20003117C43730
:100170006910ED3074106B34E13A000132175434D9
:10018000EF3074004E3461383A00D4253A00CD2562
:100190003A00201020226F10E4306910ED30781002
:1001A0003D1038002027E8306E104410E432203C27
:1001B000E1312037E8306E00D4253A00CD253A00F1
:1001C00020102010D4306F10D53965390000D425A7
:1001D0003A002010D8376110D43069104B34EF301A
:1001E0006E10D539653900014E3461372022203236
:1001F0006510F83063106E346137000020104E3403
:10020000FF3FFF3FFF3FFF3FFF3FFF3FFF3FFF3FFE
:100210002022EF34A0264B10743461376810E33786
:10022000EE33210020104E346138A0264B10ED37FC
:10023000691D0001CD253A002010202169106B3482
:10024000EF30203AF237EE332014F314000120107F
:10025000D42520326110F4376E10F430E91000011B
:10026000202AE137202A6B10743461376810E33795
:10027000EE3321002010D8376110743461376810D4
:10028000E337EE332100D43069104B34EF306E1079
:10029000EB37203A6F37203AE134000083168801AB
:1002A0007108831288008316091183120915103012
:1002B000F700F70B59290000831609118312091161
:1002C0003130F700F70B6229652908008316091001
:1002D00083120910F2017008F1004E210800693004
:1002E000840083130008031982290630F800F701FF
:1002F000F70B7829F80B77297B30F700F70B7E296D
:10030000FF3FFF3FFF3FFF3FFF3FFF3FFF3FFF3FFD
:100310006C08F1004E21080083160911831209119F
:10032000831609108312091083168910831289100D
:100330003830F00066210F30F00066210130F00007
:1003400066210230E9006F210630F000662140305E
:10035000F0006621E10161083F3C031CB6296108F9
:100360000420E200EC008321E10AAB2908000130FF
:10037000F00066210230E9006F2108008030EB00B8
:10038000C030EC009430ED00D430EE006B306907E3
:10039000840083136A080007EF00F000662108005C
:1003A0000B08E9008B13831603178C170C1400003D
:1003B000000083120313E91B8B1703170C087F3906
:1003C0000319242A0313E90003170D080313EA0095
:1003D00003170F080313EB006908EC0083216A0878
:1003E00003178D0003136B0803178F0003130B080B
:1003F000EC008B13831603178C170C1400000000FD
:10040000FF3FFF3FFF3FFF3FFF3FFF3FFF3FFF3FFC
:100410000319242A0313E90003170D080313EA0044
:1004200003170F080313EB006908EC0083216A0827
:1004300003178D0003136B0803178F008D0A031930
:100440008F0A0313D029031703130800B721E9010A
:10045000EA01BE21C53003178D0000308F00031361
:10046000D0210130E900EA01BE21C73003178D0019
:1004700000308F000313D0210230E900EA01BE21D1
:10048000C93003178D0000308F000313D0210330D3
:10049000E900EA01BE21D23003178D0000308F0041
:1004A0000313D021E9010330EA00BE210800E60170
:1004B0006608630784008313641883178008031990
:1004C000872A66086507E7006608630784008313C8
:1004D000641883170008E8000B08F7008B136708FF
:1004E00003178D000313680803178C0083168C1301
:1004F0000C1555308D00AA308D008C148C187E2A76
:10050000FF3FFF3FFF3FFF3FFF3FFF3FFF3FFF3FFB
:10051000073C031CA72A66086507E7000B08F700DD
:100520008B13670803178D00FF308C0083168C1324
:100530000C1555308D00AA308D008C148C189E2A15
:100540000C117708831203138B04E60A872A08002C
:10055000F701F801650803106618F707F70CF80CA7
:10056000E618F707F70CF80C6619F707F70CF80C04
:10057000E619F707F70CF80C661AF707F70CF80CF2
:10058000E61AF707F70CF80C661BF707F70CF80CE0
:10059000E61BF707F70CF80C0800FE30E100FF300F
:1005A000E300E200E401E41BD92A6408033C031CD5
:1005B000062B831686018312610886000310610DE5
:1005C000013EE100831606168312061AEA2AE301A9
:1005D000062B042B831686168312861AF32A013003
:1005E000E300062B042B831606178312061BFC2A36
:1005F0000230E300062B042B831686178312861B1A
:10060000FF3FFF3FFF3FFF3FFF3FFF3FFF3FFF3FFA
:10061000152B6408E5000430E600A822630878077B
:10062000223E840083130008E2006208F8000800FC
:1006300065086307840083136418831732088000F9
:10064000080003304A07E300E9016308EA00BE211D
:100650003208EC0083216208E4006108E3004A08E4
:10066000E50018230800C319652B3208443C031920
:10067000472B3208233C0319472B4A08073C031C2D
:10068000462BE2013330E1002123CA0A652B3208F0
:10069000233C031D5D2BCA0803195C2BCA032030C1
:1006A000B200E2013330E100212303304A07E100C8
:1006B000E9016108EA00BE21652BC315FF30B200D5
:1006C0000130E9000330EA00BE21080003304B0787
:1006D000E3000130E9006308EA00BE213208203C53
:1006E000031D762B2030EC008321792B2A30EC007F
:1006F00083216208E4006108E3004B08E500182349
:10070000FF3FFF3FFF3FFF3FFF3FFF3FFF3FFF3FF9
:100710008A2B982B3208233C0319982B4B08073C53
:10072000031C972BE2013B30E1006623CB0AB32B7D
:100730003208233C031DAF2BCB080319AE2BCB0390
:100740002030B200E2013B30E100662303304B076A
:10075000E1000130E9006108EA00BE21B32B320854
:10076000443C0319C3160800EE016E08073C031C45
:10077000DB2B6E086D07F000700803178D008316E1
:100780008C130C1483120C080313EF006F0FD12B82
:100790006E086B07840083136C1883178001DB2BB2
:1007A000D92B6E086B07840083136C1883176F08AE
:1007B0008000EE0AB52B08006C08FA006B08840074
:1007C00083137A1883170008EF006E08FA006D088B
:1007D000840083137A18831700086F02031D072C07
:1007E0006C08FA006B08840083137A18831780085A
:1007F000031DFD2B0030F8001F2C6C08FA006B085D
:10080000FF3FFF3FFF3FFF3FFF3FFF3FFF3FFF3FF8
:10081000FA006B08840083136C1883170008EF003C
:100820006E08FA006D08840083136E1883170008A1
:100830006F0203181D2CFF301E2C0130F800080039
:1008400033304A07840083138001EA01E9016A0812
:10085000003C031C532C690803178D0083168C136E
:100860000C1483120C08FF3C03194D2C0313EC01EC
:100870006130EB006908ED00B423EC016130EB005E
:10088000EE013330ED00DC23F808031D4C2C690821
:10089000CC000130F800552C031710300313E90782
:1008A0000318EA0A272C0030F8000800B721E901F4
:1008B000EA01BE21983003178D0000308F0003132A
:1008C000D0210130E900EA01BE21A13003178D00DB
:1008D00000308F000313D0210230E900EA01BE216D
:1008E000A93003178D0000308F000313D02103308F
:1008F000E900EA01BE21B23003178D0000308F00FD
:10090000FF3FFF3FFF3FFF3FFF3FFF3FFF3FFF3FF7
:10091000B63003178D0000308F000313D021023052
:10092000E900EA01BE21BE3003178D0000308F00C0
:100930000313D0210330E900EA01BE21C2300317BE
:100940008D0000308F000313D0210800CA01CB01B5
:10095000E9016908073C031CB92C3330690784009E
:10096000831380013B306907840083138001E90A07
:10097000A92C08002024F8080319EF2C3B304B0762
:10098000840083138001431108304C07E900EC0117
:100990006130EB006908ED00B423EC016130EB003D
:1009A000EE013B30ED00DC23F808031DEA2C45087E
:1009B000EC004408EB00EE013330ED00DC23F808D6
:1009C000031DE52C43155624E62C8324A624013070
:1009D000F800EC2C0030F800F808031DF22C003071
:1009E000F800F42C0130F8008A110A12662EB721A3
:1009F0000130E900EA01BE218E3003178D0000307E
:100A0000FF3FFF3FFF3FFF3FFF3FFF3FFF3FFF3FF6
:100A1000E10B052D26228A110A126D2E6208E900CB
:100A20006308EA00BE21E4016408053C031C302D84
:100A30006408033C031D232D01306207E500E90033
:100A40006308EA00BE216108E5000630E600A8223E
:100A5000640878074820E500EC008321E40A142D9F
:100A60008A110A12972EA624B721E901EA01BE21B4
:100A7000DC3003178D0000308F000313D0210130CC
:100A8000E900EA01BE21DE3003178D0000308F003F
:100A90000313D0210230E900EA01BE21E030031740
:100AA0008D0000308F000313D021E9010330EA00EC
:100AB000BE2108000130CD00A6243325C3118A11C0
:100AC0000A12CD2E0230CD00C311A624A624B721D0
:100AD000E901EA01BE21E73003178D0000308F00E5
:100AE0000313D0210130E900EA01BE21E9300317E8
:100AF0008D0000308F000313D0210230E900EA019D
:100B0000FF3FFF3FFF3FFF3FFF3FFF3FFF3FFF3FF5
:100B1000E9010330EA00BE218A110A12CD2EA62473
:100B20000330CD00C315B721E901EA01BE2112301F
:100B300003178D0001308F000313D0210130E9002D
:100B4000EA01BE211A3003178D0001308F00031314
:100B5000D0218A110A12CD2EA624CD01C311431231
:100B600056240800B7210130E900EA01BE2108300F
:100B700003178D0001308F000313D0210830E100EE
:100B8000FA30E9006F21E10BC02D0800B721E9011F
:100B9000EA01BE21FE3003178D0000308F000313E1
:100BA000D0210130E900EA01BE21063003178D0093
:100BB00001308F000313D0218A110A12C52F0308B8
:100BC0001F3983004310C3104311CA01CB01C31165
:100BD0004312CD01CE01C312CF01FF30D0008316E6
:100BE0001F149F141F159F1107309C00831383123D
:100BF000A001A1013130A2003230A3003330A400A3
:100C0000FF3FFF3FFF3FFF3FFF3FFF3FFF3FFF3FF4
:100C10004230A9003730AA003830AB003930AC0080
:100C20004330AD002A30AE003030AF002330B0008A
:100C30004430B1003130C6003230C7003330C80014
:100C4000C901C5014630C400D501D601D701D8017C
:100C5000D901DA01DB01DC018C21B72100308316D8
:100C60008800F0308600811383128C2126223130D7
:100C7000DD003230DE003330DF00E001E4015D30C2
:100C8000E300E5015722E4015D30E3000830E500B0
:100C900057220430E100FA30E9006F21E10B4B2EBE
:100CA000CD227808B200320F562EF52F3230E900EF
:100CB0006F21CD227808B200320F5F2EF52FC318B6
:100CC000AD2E33238123C31E712EBA2CF8080319CD
:100CD0006C2EC314CF016E2EF72CCF0AA624C3119D
:100CE000C3124F08033C031DAC2EB7210130E900AD
:100CF000EA01BE211C3003178D0001308F00031361
:100D0000FF3FFF3FFF3FFF3FFF3FFF3FFF3FFF3FF3
:100D10000530D100D108031D902ED2080319A32E4F
:100D20005108E1000230E2000830E3000E2D0430EB
:100D3000E100FA30E9006F21E10B992E5108031907
:100D4000D203D1038A2E50105008831687008312D5
:100D50000710B7212622CF01EF2F431DBC2FCD084E
:100D6000031DCE2E3208313C031DB82E5A2DCD2E38
:100D70003208323C031DBE2E622DCD2E3208333C8C
:100D8000031DC42E8F2DCD2E3208343C031DCD2ED5
:100D9000A624CD01C311C3102622BB2F4D0B512F0A
:100DA000431A022F3208443C031DFA2E202454100B
:100DB00078185414541CF22EB7210130E900EA01CE
:100DC000BE21273003178D0001308F000313D0217F
:100DD0000830E100FA30E9006F21E10BEA2EA62489
:100DE0003325F92E4316C3150130E9000330EA001C
:100DF000BE21012F3208433C031D002FAC25012FDB
:100E0000FF3FFF3FFF3FFF3FFF3FFF3FFF3FFF3FF2
:100E1000D1005208003C031C1F2F510803178D00FE
:100E200083168C130C1483120C080313D300530F76
:100E30001A2F1F2F1030D1070318D20A092FE401EF
:100E40003330E3005108E500572208305107E10034
:100E50005208E2000318E20AE4013B30E3006108B3
:100E6000E5005722B7210130E900EA01BE21303008
:100E700003178D0001308F000313D0210830E100EB
:100E8000FA30E9006F21E10B402FCD0143125624C7
:100E9000502F3208433C031D4F2FAC25502F812388
:100EA000BB2F4D08023C031DA22F3208443C031DFA
:100EB0009A2F2024F8080319842FEC013330EB001B
:100EC0004508EE004408ED00DC23F8080319842FE0
:100ED000E4015530E3004C08E500572208304C0788
:100EE000E100E4015530E3006108E5005722B72135
:100EF0000130E900EA01BE213A3003178D000130CC
:100F0000FF3FFF3FFF3FFF3FFF3FFF3FFF3FFF3FF1
:100F1000BE21433003178D0001308F000313D02111
:100F2000CD010830E100FA30E9006F21E10B932F89
:100F30005624A12F3208433C031DA02FAC25A12F1E
:100F40003323BB2F4D08033C031DBB2F3208443C09
:100F5000031DB42FE4013B30E3000830E5005722C5
:100F6000B225CD015624BB2F3208433C031DBA2FB6
:100F7000AC25BB2F8123EF2FCE08031DD32F3208C2
:100F8000313C031DC92FA624C62DC3150130CE0048
:100F9000D22F3208323C031DD22FA624CE01C3111A
:100FA000C3102622EF2F4E0BEF2F3208443C031DB7
:100FB000E62F08304C07E100E4013B30E300610814
:100FC000E5005722B2258324CE01EF2F3208433C9F
:100FD000031DEE2FA624CE018324EF2F8123CD22E3
:100FE000780FEF2F3230E9006F21502E6300FF3F62
:100FF000FF3FFF3FFF3FFF3FFF3FFF3FFF3FFF3F01
:10100000FF3FFF3FFF3FFF3FFF3FFF3FFF3FFF3FF0
:10101000FF3FFF3FFF3FFF3FFF3FFF3FFF3FFF3FE0
:10102000FF3FFF3FFF3FFF3FFF3FFF3FFF3FFF3FD0
:10420000FF003200FF00FF00FF00FF00FF00FF0083
:10421000FF00FF00FF00FF00FF00FF00FF00FF00A6
:10422000FF00FF00FF00FF00FF00FF00FF00FF0096
:10423000FF00FF00FF00FF00FF00FF00FF00FF0086
:10424000FF00FF00FF00FF00FF00FF00FF00FF0076
:10425000FF00FF00FF00FF00FF00FF00FF00FF0066
:10426000FF00FF00FF00FF00FF00FF00FF00FF0056
:10427000FF00FF00FF00FF00FF00FF00FF00FF0046
:10428000FF00FF00FF00FF00FF00FF00FF00FF0036
:10429000FF00FF00FF00FF00FF00FF00FF00FF0026
:1042A000FF00FF00FF00FF00FF00FF00FF00FF0016
:1042B000FF00FF00FF00FF00FF00FF00FF00FF0006
:1042C000FF00FF00FF00FF00FF00FF00FF00FF00F6
:1042D000FF00FF00FF00FF00FF00FF00FF00FF00E6
:1042E000FF00FF00FF00FF00FF00FF00FF00FF00D6
:1042F000FF00FF00FF00FF00FF00FF00FF00FF00C6
:10430000FF00FF00FF00FF00FF00FF00FF00FF00B5
:10431000FF00FF00FF00FF00FF00FF00FF00FF00A5
:10432000FF00FF00FF00FF00FF00FF00FF00FF0095
:10433000FF00FF00FF00FF00FF00FF00FF00FF0085
:10434000FF00FF00FF00FF00FF00FF00FF00FF0075
:10435000FF00FF00FF00FF00FF00FF00FF00FF0065
:10436000FF00FF00FF00FF00FF00FF00FF00FF0055
:10437000FF00FF00FF00FF00FF00FF00FF00FF0045
:10438000FF00FF00FF00FF00FF00FF00FF00FF0035
:10439000FF00FF00FF00FF00FF00FF00FF00FF0025
:1043A000FF00FF00FF00FF00FF00FF00FF00FF0015
:1043B000FF00FF00FF00FF00FF00FF00FF00FF0005
:1043C000FF00FF00FF00FF00FF00FF00FF00FF00F5
:1043D000FF00FF00FF00FF00FF00FF00FF00FF00E5
:1043E000FF00FF00FF00FF00FF00FF00FF00FF00D5
:1043F000FF00FF00FF00FF00FF00FF00FF00FF00C5
:02400E00723FFF
:08400000FF3FFF3FFF3FFF3FC0
:00000001FF
