:1000000000308A00A328000083168801831232087A
:10001000880083160911831209151030F700F70BB9
:100020000F28000083160911831209113130F700DF
:10003000F70B18281B2808008316091083120910D3
:10004000B3013108B200042008002A308400831371
:100050000008031938280630F800F701F70B2E289E
:10006000F80B2D287B30F700F70B3428800B2B285A
:1000700008008316091183120911831609108312CF
:10008000091083168910831289103830B1001C20A2
:100090000F30B1001C200130B1001C200230AA003A
:1000A00025200630B1001C208A110A12BA2801301E
:1000B000B1001C200230AA0025208A110A12BB2898
:1000C000AD012D08073C031C87282D082C07AF0025
:1000D0002F0803178D0083168C130C1483120C0841
:1000E0000313AE002E0F7D282D082A0784008313EA
:1000F0002B1883178001872885282D082A0784005C
:1001000083132B1883172E088000AD0A612808007E
:100110008030AC00C030AD009430AE00D430AF00C1
:100120002C302A07840083132B080007B000B1008D
:100130001C2008008316091083120914B3012B0830
:10014000B2000420080003081F398300FF30A80014
:1001500083161F149F141F159F1107309C008313D3
:100160008312A001A101A201A301A401A501A6017E
:10017000A70139285728A901AB012030AA00AC01FA
:100180006020AA01AB018820A9012908073C031CB3
:10019000DA28203029078400831380080319D8281F
:1001A00020302907840083130008AA00AB009A209E
:1001B000A90AC528AB012030AA000830AC00602095
:1001C0000130AA00AB018820A9012908073C031CC3
:1001D000FA28203029078400831380080319F8289F
:1001E00020302907840083130008AA00AB009A205E
:1001F000A90AE52828122808831687008312071603
:04020000FA28630075
:02400E003A3F37
:00000001FF
;PIC16F877A
;CRC=7F72  CREATED="06-Mar-19 00:01"
