:1000000003308A00112B00000A108A100A1182079F
:1000100007340F341F341F341F341F341F341F3470
:100020001F341F341F3400340034003400340034D3
:100030001C341E341F341F341F341F341F341F342C
:10004000003400340034003400341F341F341F34B3
:100050001F341F341F341F341F341F341E341C340C
:100060001F341F341F341F341F341F340F34073420
:100070001F341F341F340034003400341F341F3445
:100080001F341F341F341F341F341F341F341F34D8
:10009000F3346E340000E8300001E43961320015B9
:1000A000831688018312340888008316091183128D
:1000B00009151030F700F70B5B28000083160911B3
:1000C000831209113130F700F70B64286728080004
:1000D0008316091083120910B5013308B4005020AB
:1000E00008002D308400831300080319842806308B
:1000F000F800F701F70B7A28F80B79287B30F70026
:10010000F70B8028800B77280800831609108312CC
:100110000914B5012F08B4005020080083160911F6
:10012000831209118316091083120910831689108E
:10013000831289103830B30068200F30B300682074
:100140000130B30068200230AD0071200630B300EA
:1001500068204030B3006820AC012C083F3C031CF1
:10016000B8282C080420AD00AF008520AC0AAD28CB
:100170008A110A12202B0130B30068200230AD0032
:1001800071208A110A12212B0B08AC008B138316E5
:1001900003178C170C140000000083120313AC1B10
:1001A0008B1703170C087F39031918290313AC00A8
:1001B00003170D080313AD0003170F080313AE0058
:1001C0002C08AF0085202D0803178D0003132E087F
:1001D00003178F0003130B08AF008B13831603174D
:1001E0008C170C140000000083120313AF1B8B1735
:1001F00003170C0D0E0D7F39031918290313AC00DA
:1002000003170D080313AD0003170F080313AE0007
:100210002C08AF0085202D0803178D0003132E082E
:1002200003178F008D0A03198F0A0313C4280317BD
:10023000031308008030AE00C030AF009430B0002F
:10024000D430B1002E302C07840083132D08000712
:10025000B200B30068208A110A12302BA701503077
:10026000A6001230A5000430A4000930A30011300C
:10027000A2001630A1009030A9009830A8008A1181
:100280000A12382B0830F8000430F700F70B462923
:100290008711A0112008831687000330F700F70BA1
:1002A0004F298312AC0D0712031C5C29201620086D
:1002B0008316870060298312201220088316870086
:1002C00000008312A0152008831687008312871D63
:1002D0006729F80B44290430F700F70B6D298711C3
:1002E000A011200883168700000083122016200822
:1002F000831687000330F700F70B7C290330F700E3
:10030000F70B80298312A01520088316870083121B
:10031000871D8829F8010330F700F70B8D29071A8C
:1003200078148711A0112008831687008312071202
:100330002012200883168700831208002016200848
:10034000831687000430F700F70BA4298312A01549
:100350002008831687000330F700F70BAD298312BE
:10036000071220122008831687000430F700F70BCD
:10037000B72983128711A011200883168700D03077
:100380008312AC004221AC0142212708AC0042217B
:100390002608AC0042212508AC0042212408AC000C
:1003A00042212308AC0042212208AC00422121084E
:1003B000AC0042212908AC0042212808AC004221AF
:1003C000201220088316870000008312A015200841
:1003D000831687008312871DEB290430F700F70B83
:1003E000EF29F22900002016200883168700043028
:1003F000F700F70BF92983128A110A12392B0830FA
:10040000AD007708AE002016200883168700033061
:10041000F700F70B092A8312A0152008831687001E
:100420008312871D112A071A0314071E0310F80DE3
:100430000430F700F70B1A2AA01120088316870052
:1004400083128711AD0B032A20162008831687001C
:100450000330F700F70B2A2A831207122E0803191C
:10046000362A201220088316870083120000A01568
:100470002008831687008312871D3C2A0430F7006A
:10048000F70B402A8711A01120088316870003303C
:10049000F700F70B492A831207122012200883164F
:1004A0008700831208002016200883168700043076
:1004B000F700F70B592A8312A0152008831687002E
:1004C0000330F700F70B622A83120712201220086C
:1004D000831687000430F700F70B6C2A831287110C
:1004E000A011200883168700D0308312AC0042216F
:1004F000AC01422120162008831687000430F70043
:10050000F70B802A8312A01520088316870003307A
:10051000F700F70B892A8312871D8C2A07122012F5
:100520002008831687000430F700F70B952A831202
:100530008711A011200883168700D1308312AC00E8
:1005400042210130F700FF217808A7000130F700B1
:10055000FF217808A6000130F700FF217808A500E8
:100560000130F700FF217808A4000130F700FF21D7
:100570007808A3000130F700FF217808A2000130BD
:10058000F700FF217808A1000130F700FF2178086B
:10059000A900F701FF217808A8002012200883167F
:1005A000870000008312A01520088316870083129D
:1005B000871DD82A0430F700F70BDC2ADF2A000059
:1005C00020162008831687000430F700F70BE62A70
:1005D00083128A110A12412B2C082D068039AF0094
:1005E000AC1FF42AAC09AC0AAD1FF82AAD09AD0A5C
:1005F0002D08F8012C020318002B2C08F7000C2BF7
:10060000F7010830AE00AC0DF70D2D087702031886
:10061000F700F80DAE0B032BAF1F102BF809F80AEB
:10062000080003081F398300FF30A00083161F1441
:100630009F141F159F1107309C00831383128E286F
:10064000BB28831681134830831203178D000030B6
:100650008F000313C4200230AC000330AD001A2910
:100660004B3003178D0000308F000313C4202E2958
:100670009E294D3003178D0000308F000313C420D6
:10068000532A8C30B30068202508AC001030AD0030
:10069000EC2230307807AC00AF0085202508AC0094
:1006A0001030AD00EC2230307707AC00AF00852071
:1006B0002030AF0085202608AC001030AD00EC22C1
:1006C00030307807AC00AF0085202608AC00103031
:1006D000AD00EC2230307707AC00AF008520203031
:1006E000AF0085202708AC001030AD00EC22303080
:1006F0007807AC00AF0085202708AC001030AD00B3
:10070000EC2230307707AC00AF008520CC30B3004E
:1007100068202308AC001030AD00EC2230307807A0
:10072000AC00AF0085202308AC001030AD00EC22F7
:1007300030307707AC00AF0085202030AF00852037
:100740002208AC001030AD00EC2230307807AC004D
:10075000AF0085202208AC001030AD00EC22303014
:100760007707AC00AF0085202030AF00852021083E
:10077000AC001030AD00EC2230307807AC00AF0098
:1007800085202108AC001030AD00EC223030770716
:0A079000AC00AF008520402B630091
:02400E003A3F37
:00000001FF
;PIC16F877A
;CRC=8115  CREATED="27-Mar-19 22:29"
