:1000000008308A0000280000D424CD223A100000D5
:10001000201020100001C420D4223A00201020100B
:100020000000201020100001201020100000CE231E
:10003000D52C4527202B41272021C1210001311B30
:10004000B1183918B61A8000A021C8244E242021E6
:10005000C127202AC82A4310201000004318322844
:10006000081033280814831608108312C3183A287E
:1000700007113B28071520112008831687008312DB
:1000800043194428871045288714A0102008831698
:1000900087008312C3194E2807104F280714201019
:1000A00020088316870083120800433084008313DE
:1000B0000008031968280630F800F701F70B5E28DE
:1000C000F80B5D287B30F700F70B6428800B5B286A
:1000D000080083160911831209150430F700F70B85
:1000E0006F28722883160911831209110330C30087
:1000F00055200800C20E4208C3002E206920C20EFF
:100100004208C3002E2069200800C3012E20C830F9
:10011000C300552083160910831209100330C30051
:100120002E206920692069200230C3002E2069201A
:100130002C30C2007A200C30C2007A200630C20077
:100140007A200130C2007A208A150A121628083057
:10015000F80000008711A011200883168700000016
:100160008312C00D0712031CBB282016200883161B
:100170008700BF2883122012200883168700000002
:100180008312A0152008831687008312871DC628B6
:10019000F80BA92800008711A011200883168700FA
:1001A000000083122016200883168700000000003C
:1001B0008312A0152008831687008312871DDE286E
:1001C000F8010000071A78148711A011200883167F
:1001D00087008312071220122008831687008312DB
:1001E00008000830C2007708C300201620088316D4
:1001F000870000008312A015200883168700831251
:10020000871D0029071A0314071E0310F80D0000AC
:10021000A01120088316870083128711C20BF528CE
:100220002016200883168700000083120712430857
:1002300003191F292012200883168700831200004B
:10024000A0152008831687008312871D252900002A
:100250008711A0112008831687000000831207125F
:100260002012200883168700831208002016200819
:100270008316870000008312A015200883168700CC
:100280000000831207122012200883168700000046
:1002900083128711A011200883168700D0308312A3
:1002A000C000A720C001A7202016200883168700C1
:1002B00000008312A0152008831687000000831217
:1002C000871D60290712201220088316870000006E
:1002D00083128711A011200883168700D130831262
:1002E000C000A720F701F1207808BA0020122008EA
:1002F0008316870000008312A0152008831687004C
:100300008312871D812900008529000020162008FE
:1003100083168700000083123A0880390319C72921
:10032000BA13201620088316870000008312A01538
:10033000200883168700000083120712201220086D
:1003400083168700000083128711A01120088316EE
:1003500087008312C001A720C001A7203A08C0006F
:10036000A720201220088316870000008312A01502
:100370002008831687008312871DBC290000C0292E
:1003800000002016200883168700000083128A15BB
:100390000A12192883160910831209144108C20091
:1003A0007A20831609108312091008000B08BE007A
:1003B0008B13831603178C170C1400000000831294
:1003C0000313BE1B8B1703170C087F3903192A2A46
:1003D0000313BE0003170D080313BF0003170F0814
:1003E0000313C0003E08C100CA213F0803178D0057
:1003F0000313400803178F0003130B08C1008B136E
:10040000831603178C170C140000000083120313CB
:10041000C11B8B1703170C0D0E0D7F3903192A2AE8
:100420000313BE0003170D080313BF0003170F08C3
:100430000313C0003E08C100CA213F0803178D0006
:100440000313400803178F008D0A03198F0A031343
:10045000D6290317031308002016200883168700E7
:1004600000008312A0152008831687000000831265
:1004700007122012200883168700000083128711BC
:10048000A011200883168700D0308312C000A72057
:10049000C001A720201620088316870000008312C1
:1004A000A01520088316870000008312871D562A96
:1004B000071220122008831687000000831287117C
:1004C000A011200883168700D1308312C000A72016
:1004D0003E08FA003D08840083133E18831701305C
:1004E000F700F1207808800001303D07F8003E0851
:1004F000FA000318FA0A7808840083137A1883171D
:100500000130F700F1207808800002303D07F80044
:100510003E08FA000318FA0A7808840083137A1850
:1005200083170130F700F1207808800003303D0781
:10053000F8003E08FA000318FA0A780884008313CA
:100540007A1883170130F700F12078088000043012
:100550003D07F8003E08FA000318FA0A78088400FC
:1005600083137A1883170130F700F1207808800090
:1005700005303D07F8003E08FA000318FA0A78082B
:10058000840083137A1883170130F700F12078086C
:10059000800006303D07F8003E08FA000318FA0A0A
:1005A0007808840083137A188317F701F1207808FC
:1005B0008000201220088316870000008312A015F7
:1005C0002008831687008312871DE42A0000E82A8A
:1005D0000000201620088316870000008312080000
:1005E0002E0EA1000F30A1052E080F39A2002F0EEC
:1005F000A3000F30A3052F080F39A400300EA5006B
:100600000F30A50530080F39A6003108A700320EBB
:10061000A8000F30A80532080F39A900330EAA0030
:100620000F30AA0533080F39AB00340EAC000F3081
:10063000AC0534080F39AD0008008030C2007A20C4
:10064000043003178D0000308F000313D6213D0BBB
:10065000302B5F30C100CA215F30C100CA213A2B64
:1006600030302507BE00C100CA2130302607BE0049
:10067000C100CA213A30C100CA213D08023C031D15
:10068000482B5F30C100CA215F30C100CA21522B04
:1006900030302307BE00C100CA2130302407BE001D
:1006A000C100CA213A30C100CA213D08033C031DE4
:1006B000602B5F30C100CA215F30C100CA216A2BA4
:1006C00030302107BE00C100CA2130302207BE00F1
:1006D000C100CA21083003178D0000308F000313BA
:1006E000D621C030C2007A200B3003178D000030B5
:1006F0008F000313D6213D08043C031D862B5F3079
:10070000C100CA215F30C100CA21902B30302807B8
:10071000BE00C100CA2130302907BE00C100CA2175
:100720002F30C100CA213D08053C031D9E2B5F30C0
:10073000C100CA215F30C100CA21A82B30302A076E
:10074000BE00C100CA2130302B07BE00C100CA2143
:100750002F30C100CA213230C100CA213030C1005F
:10076000CA213D08063C031DBC2B5F30C100CA21D5
:100770005F30C100CA21C62B30302C07BE00C1003B
:10078000CA2130302D07BE00C100CA210E30031728
:100790008D0000308F000313D6210800F701F80107
:1007A0003D0803103E18F707F70CF80CBE18F707C2
:1007B000F70CF80C3E19F707F70CF80CBE19F70701
:1007C000F70CF80C3E1AF707F70CF80CBE1AF707EF
:1007D000F70CF80C3E1BF707F70CF80CBE1BF707DD
:1007E000F70CF80C08003E08F8013D020318FB2B3B
:1007F0003D08F700072CF7010830BF00BD0DF70DCD
:100800003E0877020318F700F80DBF0BFE2B080017
:100810000130BA00BB01BE012E30BD002C22F022F7
:100820003B08043C031C172CBD011D231A2C3A085D
:10083000BD001D23BB0A3B08093C031CBB018316FA
:10084000861483128618E62C831686148312861C5F
:10085000242CBB0101303A02FA3E0318E62C063E76
:100860009B2E2508BD000A30BE00CE23260878073F
:10087000BC003C08163C031C3F2CBC0A402CBC01AD
:100880003C08BD000A30BE00F3237808A5003C08F0
:10089000BD000A30BE00F3237708A600E62C23082B
:1008A000BD000A30BE00CE2324087807BC003C08F7
:1008B0003A3C031C5D2CBC0A5E2CBC013C08BD000C
:1008C0000A30BE00F3237808A3003C08BD000A30BC
:1008D000BE00F3237708A400E62C2108BD000A30EF
:1008E000BE00CE2322087807BC003C083A3C031C1B
:1008F0007B2CBC0A7C2CBC013C08BD000A30BE002D
:10090000F3237808A1003C08BD000A30BE00F323A1
:100910007708A200E62C2808BD000A30BE00CE23CE
:1009200029087807BC003C081E3C031C992CBC0A13
:100930009B2C0130BC003C08BD000A30BE00F323F4
:100940007808A8003C08BD000A30BE00F3237708F1
:10095000A900E62C2A08BD000A30BE00CE232B08D1
:100960007807BC003C080B3C031CB82CBC0ABA2C12
:100970000130BC003C08BD000A30BE00F3237808FB
:10098000AA003C08BD000A30BE00F3237708AB0084
:10099000E62C2C08BD000A30BE00CE232D087807B7
:1009A000BC003C08623C031CD72CBC0AD82CBC0100
:1009B0003C08BD000A30BE00F3237808AC003C08B8
:1009C000BD000A30BE00F3237708AD00831606157C
:1009D00083120619AD2D831606158312061DEB2C06
:1009E000BB0101303A02FA3E0318AD2D063EA52E9A
:1009F0002508BD000A30BE00CE2326087807BC00BB
:100A0000BC080319052DBC03072D1730BC003C089A
:100A1000BD000A30BE00F3237808A5003C08BD00E5
:100A20000A30BE00F3237708A600AD2D2308BD00D1
:100A30000A30BE00CE2324087807BC00BC08031986
:100A4000232DBC03252D3B30BC003C08BD000A30E3
:100A5000BE00F3237808A3003C08BD000A30BE00A6
:100A6000F3237708A400AD2D2108BD000A30BE0095
:100A7000CE2322087807BC00BC080319412DBC0313
:100A8000432D3B30BC003C08BD000A30BE00F323C0
:100A90007808A1003C08BD000A30BE00F3237708A7
:100AA000A200AD2D2808BD000A30BE00CE232908C3
:100AB0007807BC003C08013C0318602DBC03622D84
:100AC0001F30BC003C08BD000A30BE00F32378088C
:100AD000A8003C08BD000A30BE00F3237708A90037
:100AE000AD2D2A08BD000A30BE00CE232B087807A2
:100AF000BC003C08013C03187F2DBC03812D0C3049
:100B0000BC003C08BD000A30BE00F3237808AA00F0
:100B10003C08BD000A30BE00F3237708AB00AD2DC2
:100B20002C08BD000A30BE00CE232D087807BC007B
:100B3000BC0803199D2DBC039F2D6330BC003C08ED
:100B4000BD000A30BE00F3237808AC003C08BD00AD
:100B50000A30BE00F3237708AD0083160614831213
:100B60000618BE2D831606148312061CB22D0530FE
:100B7000BB00BA0A3A08063C031CCA2D8316861528
:100B800083128619C92D831686158312861DC32DDF
:100B9000CA2D102C210EF700F030F705770822043B
:100BA000AE00230EF700F030F70577082404AF00FD
:100BB000250EF700F030F70577082604B000270867
:100BC000B100280EF700F030F70577082904B200CD
:100BD0002A0EF700F030F70577082B04B3002C0E2F
:100BE000F700F030F70577082D04B400BE012E3071
:100BF000BD00201620088316870000008312A01570
:100C00002008831687000000831207122012200894
:100C100083168700000083128711A0112008831615
:100C20008700D0308312C000A720C001A7203E0853
:100C3000FA003D08840083133E1883170008BF00A4
:100C4000C000A72001303D07F8003E08FA00031855
:100C5000FA0A7808840083137A1883170008BF0003
:100C6000C000A72002303D07F8003E08FA00031834
:100C7000FA0A7808840083137A1883170008BF00E3
:100C8000C000A72003303D07F8003E08FA00031813
:100C9000FA0A7808840083137A1883170008BF00C3
:100CA000C000A72004303D07F8003E08FA000318F2
:100CB000FA0A7808840083137A1883170008BF00A3
:100CC000C000A72005303D07F8003E08FA000318D1
:100CD000FA0A7808840083137A1883170008BF0083
:100CE000C000A72006303D07F8003E08FA000318B0
:100CF000FA0A7808840083137A1883170008BF0063
:100D0000C000A7202012200883168700000083124D
:100D1000A0152008831687008312871D8D2E0000E2
:100D2000912E0000201620088316870000008312F1
:100D30008A150A1288280A108A140A158207312C8B
:100D40004F2C6D2C8B2CAA2CC92C0A108A140A1536
:100D50008207F82C162D342D522D712D902DC03078
:100D6000C2007A20113003178D0000308F0003136A
:100D7000D6213C0BC22E5F30C100CA215F30C100BA
:100D8000CA21D62E3508BD000A30BE00F32330300C
:100D90007807BD00C100CA213508BD000A30BE0079
:100DA000F32330307707BD00C100CA213A30C100BB
:100DB000CA213C08023C031DE42E5F30C100CA2159
:100DC0005F30C100CA21F82E3608BD000A30BE00CF
:100DD000F32330307807BD00C100CA213608BD00BA
:100DE0000A30BE00F32330307707BD00C100CA21AE
:100DF0003A30C100CA213C08033C031D062F5F3076
:100E0000C100CA215F30C100CA211A2F3708BD00B6
:100E10000A30BE00F32330307807BD00C100CA217C
:100E20003708BD000A30BE00F32330307707BD001D
:100E3000C100CA21143003178D0000308F00031346
:100E4000D62108000130BA00BB018030C2007A20F0
:100E5000243003178D0000308F000313D6213B0888
:100E6000043C031C362FBC01AF26392F3A08BC00C6
:100E7000AF26BB0A3B08093C031CBB018316861442
:100E8000831286186B2F831686148312861C432FB9
:100E9000BB013A08013A0319542F033A03195C2F96
:100EA000013A0319642F6B2F3508163C031C5A2F87
:100EB000B50A5B2FB5016B2F36083A3C031C622F35
:100EC000B60A632FB6016B2F37083A3C031C6A2F12
:100ED000B70A6B2FB7018316061583120619982FD0
:100EE000831606158312061D702FBB013A08013ABE
:100EF0000319812F033A0319892F013A0319912FFE
:100F0000982FB5080319862FB503882F1730B50021
:100F1000982FB60803198E2FB603902F3B30B600DA
:100F2000982FB7080319962FB703982F3B30B700B7
:100F30008316861583128619A92F831686158312A8
:100F4000861D9D2F0530BB00BA0A3A08033C031CDE
:100F5000B52F8316061483120618B42F83160614B1
:100F60008312061CAE2FB52F2F2F8A150A129D282B
:1010000003081F398300FF30A000B501B601B70106
:10101000B80183161F149F141F159F1107309C00E1
:1010200083130510831205148A1185288A158A11E5
:1010300036298A158130C2008A117A208A15173024
:1010400003178D0000308F008A110313D6218A15F3
:10105000C430C2008A117A208A151F3003178D0010
:1010600000308F008A110313D6218A150C30BA0084
:10107000FA30C3008A1155208A15BA0B3828BE01F0
:101080002E30BD008A112C228A158A11F0228A1571
:10109000BD018A111D238A152208390203197C28F3
:1010A0002208B9002508BD000A30BE008A11CE23EF
:1010B0008A15260878073502031D7C282308BD0001
:1010C0000A30BE008A11CE238A152408780736021A
:1010D000031D7C282108BD000A30BE008A11CE23E2
:1010E0008A15220878073702031D7C288316881189
:1010F000831288150130B80083160614831206186F
:101100008928831606148312061C81288A11082C4C
:101110008A1583168615831286199E2883168615CE
:101120008312861D8E28380B9B2883168811831204
:101130008811B8019E288A11222F8A153F28630042
:02400E00723FFF
:00000001FF
;PIC16F877A
;CRC=EC16  CREATED="28-Mar-19 16:01"
