:1000000010308A00002800000A108A100A118207A6
:1000100007340F341F341F341F341F341F341F3470
:100020001F341F341F3400340034003400340034D3
:100030001C341E341F341F341F341F341F341F342C
:10004000003400340034003400341F341F341F34B3
:100050001F341F341F341F341F341F341E341C340C
:100060001F341F341F341F341F341F340F34073420
:100070001F341F341F340034003400341F341F3445
:100080001F341F341F341F341F341F341F341F34D8
:100090000A108A100A118207003401340234053430
:1000A0000334043401340234203403340734033479
:1000B000063406340234053403340334063406347B
:1000C0000234033403340434073403340734203453
:1000D000203407340734063406340334033404343C
:1000E0000034063406340534033404340134013456
:1000F0000734203420340734003406340234053405
:100100000334043400340634023403340334043436
:10011000203420342034203420342034202AE8377E
:10012000EE33203A6937202A4B10F3306910211042
:10013000000031175434E536202A4B1020103217B6
:10014000D8376110D42500013317C4376910CD3575
:10015000201020103417453C693A00013517CC3483
:100160006334A0397510C430EE332027E8307000B6
:100170004E346138201D20003117C4376910ED302E
:1001800074106B34E13A000132175434EF307400CC
:100190004E3461383A00D4253A00CD253A00202269
:1001A0004F10E4306910ED3078103D1038002027F2
:1001B000E8306E104410E432203CE1312037E83062
:1001C0006E00D4253A00CD253A00202AE137A02A36
:1001D000F3327200D4253A002027E8307010CD2584
:1001E000A036EF343A00CD253A002022EF34A02685
:1001F0004B10743461376810E337EE33A0102000E1
:100200002027E8307010CD25A036EF343A00CD25F8
:100210003A002E00D4253A00A025E837EE33A0316D
:100220006F10D53965392037E137A0102000202123
:1002300069106B34EF30203AF237EE332014F314A8
:10024000000154346F376710D4346E10C430EE336D
:100250002027E8307000D53965393A00321800019E
:100260004334F530A0316F10D52920226137671053
:100270004E3461380001202A4B10E430203A6F37A9
:10028000203AE134A0102000202AE137202A6B1008
:10029000743461376810E337EE33A0102000202457
:1002A000653A202275376710EC3A6F376700202CCB
:1002B000EF30203AE8306E34A0316F3767102110EC
:1002C0000001D43069104B34EF306E10EB37203A18
:1002D0006F37203AE1340000831688015E088312EC
:1002E000880083160911831209151030F700F70BE7
:1002F0007729000083160911831209113130F700A4
:10030000F70B80298329080083160910831209102E
:100310008316DF015D08DE0083126C210800D630F1
:100320008400831300080319A2290630F800F7019E
:10033000F70B9829F80B97297B30F700F70B9E29CC
:10034000800B95290800831609108312091483165F
:10035000DF015908DE0083126C21080083160911A1
:10036000831209118316091083120910831689104C
:100370008312891038308316DD00831284210F30F8
:100380008316DD008312842101308316DD00831281
:10039000842102308316D60083128F210630831603
:1003A000DD008312842140308316DD008312842116
:1003B0008316CE014E083F3C031CE9294E088312E8
:1003C00004208316CF00D9008312A3218316CE0AFE
:1003D000DA298312080001308316DD00831284219C
:1003E00002308316D60083128F21080080308316D6
:1003F000D800C030D9009430DA00D430DB00D830D7
:1004000056078400831357080007DC00DD008312C1
:10041000842108000B088316D60083128B138316E1
:1004200003178C170C14000000000313D61F1B2A9F
:1004300083128B178316831203170C087F39031955
:100440007C2A83160313D600831203170D08831624
:100450000313D700831203170F0883160313D80062
:100460005608D9008312A321831657088312031755
:100470008D00831603135808831203178F0003138C
:100480000B088316D90083128B13831603178C175E
:100490000C14000000000313D91F512A83128B177C
:1004A0008316831203170C0D0E0D7F3903197C2A56
:1004B00083160313D600831203170D088316031344
:1004C000D700831203170F0883160313D8005608AA
:1004D000D9008312A32183165708831203178D00B6
:1004E000831603135808831203178F008D0A03190C
:1004F0008F0A03130A2A031703130800EB2183163C
:10050000D601D7018312F621CB3003178D000030BE
:100510008F0003130A2201308316D600D7018312FD
:10052000F621CD3003178D0000308F0003130A220F
:1005300002308316D600D7018312F621CF3003177D
:100540008D0000308F0003130A2203308316D6007B
:10055000D7018312F621D73003178D0000308F00AA
:1005600003130A228316D6010330D7008312F62123
:1005700008008316D90159085607840083135718B9
:10058000831780080319F02A59085807DA00590818
:10059000560784008313571883170008DB00831263
:1005A0000B08F7008B1383165A08831203178D006C
:1005B000831603135B08831203178C0083168C13B6
:1005C0000C1555308D00AA308D008C148C18E62A3D
:1005D0000C117708831203138B048316D90ABB2AE4
:1005E0005908073C031C142B59085807DA008312DA
:1005F0000B08F7008B1383165A08831203178D001C
:10060000FF308C0083168C130C1555308D00AA30EA
:100610008D008C148C180A2B0C117708831203138D
:100620008B048316D90AF02A83120800F701F80117
:100630008316520803105318F707F70CF80CD31859
:10064000F707F70CF80C5319F707F70CF80CD31948
:10065000F707F70CF80C531AF707F70CF80CD31A36
:10066000F707F70CF80C531BF707F70CF80CD31B24
:10067000F707F70CF80C83120800FE308316CE0043
:10068000FF30D000CF00D101D11B4A2B5108033CD1
:10069000031C7F2B86014E088312860003108316ED
:1006A0004E0D013ECE0006168312061A5C2B8316F1
:1006B000D0017F2B7B2B8312831686168312861A1A
:1006C000672B01308316D0007F2B7B2B8312831680
:1006D00006178312061B722B02308316D0007F2B65
:1006E0007B2B8312831686178312861B7C2B033089
:1006F0008316D0007F2B83128316D10A442B500F10
:10070000822B902B5108D2000430D3008312162381
:100710008316500878072E3E840083130008CF000C
:100720004F08F8008312080083165408520784000B
:1007300083135318831783123E0880000800033088
:1007400056078316D2005108D6005208D7008312EC
:10075000F6213E088316D9008312A3218316500880
:10076000D3004F08D200831256088316D400831298
:10077000942308004F19052C3E08413C0319052C11
:100780003E08423C0319052C3E08433C0319052C46
:100790003E08443C0319DE2B3E08233C0319DE2BA4
:1007A0005608073C031CDD2B8316D0013F30CF00D9
:1007B0004E08D10083129F23D60A052C3E08233C05
:1007C000031DFB2BD6080319FA2BD6032030BE00DD
:1007D0008316D0013F30CF004E08D10083129F23F3
:1007E000033056078316CF004E08D6004F08D700B7
:1007F0008312F621052C4F15FF30BE000130831601
:10080000D6000330D7008312F621080003305707C3
:100810008316D0000130D6005008D7008312F6218D
:100820003E08203C031D1A2C20308316D900831269
:10083000A3211F2C2A308316D9008312A3218316EB
:100840004F08D3004E08D200831257088316D400F5
:100850008312942308004F1D6F2C3E08413C03195E
:100860006F2C3E08423C03196F2C3E08433C031991
:100870006F2C3E08443C0319502C3E0F402C502C4A
:100880003E08233C0319502C5708073C031C4F2CEF
:100890008316CF014730CE0083120624D70A6F2C6F
:1008A0003E08233C031D6B2CD70803196A2CD70381
:1008B0002030BE008316CF014730CE0083120624BD
:1008C000033057078316CE000130D6004E08D700FC
:1008D0008312F6216F2C3E08443C03194F16080082
:1008E0008316DB015B08073C031C9A2C5B085A0744
:1008F000DD005D08831203178D0083168C130C1422
:1009000083120C0883160313DC005C0F902C5B0829
:100910005807840083135918831780019A2C982C48
:100920005B08580784008313591883175C088000FC
:10093000DB0A722C8312080083165908FA00580843
:10094000840083137A1883170008DC005B08FA0020
:100950005A08840083137A18831700085C02031D69
:10096000C82C5908FA005808840083137A18831792
:100970008008031DBE2C0030F800E02C5908FA0056
:100980005808D80A0319D90ADA0A0319DB0A9D2C78
:100990005908FA005808840083135918831700086F
:1009A000DC005B08FA005A08840083135B18831785
:1009B00000085C020318DE2CFF30DF2C0130F80049
:1009C000831208003F30560784008313800183168A
:1009D000D701D601D708031D212D5608E03C031C82
:1009E000212D5608831203178D0083168C130C14C7
:1009F00083120C08FF3C03191A2D83160313D90127
:100A0000CE30D8005608DA00831270248316D9013C
:100A1000CE30D800DB013F30DA0083129C24F80886
:100A2000031D192D831656088312D8000130F800D3
:100A3000242D0317103083160313D6070318D70A83
:100A4000EA2C0030F80083120800EB218316D6014F
:100A5000D7018312F621993003178D0000308F00E3
:100A600003130A2201308316D600D7018312F62120
:100A7000A43003178D0000308F0003130A220230C8
:100A80008316D600D7018312F621AE3003178D00EE
:100A900000308F0003130A2203308316D600D701DB
:100AA0008312F621B83003178D0000308F00031336
:100AB0000A2208000830F80000000511831605110D
:100AC0000000D60D83128510031C692D8316851432
:100AD000831203186E2D8316851083128316051555
:100AE0008312051D712DF80B5C2D00000511831676
:100AF0000511000085140000000005158312051D76
:100B00007F2DF80100008518781405118316051152
:100B1000831285108316851083120800083083160F
:100B2000D7007708D8008514000005158312051D2D
:100B3000972D85180314851C0310F80D00008316EB
:100B40000511831205118316D70B932D8514000010
:100B50008312851083165808031D851000000515A3
:100B60008312051DB12D000005118316051100002B
:100B7000831285108316851083120800EB21013043
:100B80008316D600D7018312F621BC3003178D00DF
:100B900000308F0003130A2202308316D600D701DB
:100BA0008312F621C43003178D0000308F00031329
:100BB0000A2203308316D600D7018312F621C830EB
:100BC00003178D0000308F0003130A220800D6019E
:100BD000D7018316D6015608073C031CFB2D3F3076
:100BE000560784008313800147305607840083131F
:100BF0008001D60AEB2D83120800E224F8080319BD
:100C0000DA2E47305707840083138001CF10083055
:100C100058078316D600D901CE30D8005608DA001E
:100C2000831270248316D901CE30D800DB014730FF
:100C3000DA0083129C24F808031DD52E5108831670
:100C4000D900831250088316D800DB013F30DA0048
:100C500083129C24F808031D302ECF142525D12E95
:100C6000CF16831685140430F700F70B352E0515C3
:100C70000330F700F70B3A2E831285108316851088
:100C80000430F700F70B422E83120511831605116D
:100C9000D030D60083125A258316D60183125A25E6
:100CA000831685140430F700F70B542E0515033016
:100CB000F700F70B592E8312051D5C2E8510831645
:100CC00085100430F700F70B632E8312051183168D
:100CD0000511D130D60083125A250130F7008E2538
:100CE0007808AA000130F7008E257808A9000130A5
:100CF000F7008E257808A8000130F7008E257808C7
:100D0000A7000130F7008E257808A6000130F70013
:100D10008E257808A5000130F7008E257808A400FC
:100D20000130F7008E257808AC00F7018E25780891
:100D3000AB0083168510000005158312051D9E2E3D
:100D40000430F700F70BA22EA52E000083168514A1
:100D50000430F700F70BAA2E013083122807E000B9
:100D600001302907E10001302A07E200013026079F
:100D7000E30001302507E40001302407E500E60127
:100D80008316D7016030D600F830D8008312B9221C
:100D90008316D7013F30D600F030D8008312B92235
:100DA000BE25E7250130F800D72E0030F800F808FE
:100DB000031DDD2E0030F800DF2E0130F8008A110F
:100DC0000A16C428EB2101308316D600D7018312FE
:100DD000F6218E3003178D0000308F0003130A2296
:100DE0000C308316CE00FA30D60083128F21831682
:100DF000CE0BF32E83127E228A110A16CD2883167B
:100E00004F08D6005008D7008312F6218316D1016F
:100E10005108053C031C2C2F5108033C031D192FBE
:100E200001304F07D200D6005008D7008312F621B8
:100E300083164E08D2000630D30083121623831681
:100E400051087807831248208316D200D9008312F4
:100E5000A3218316D10A082F83128A110A160529A5
:100E6000E725EB218316D601D7018312F621E13065
:100E700003178D0000308F0003130A220130831600
:100E8000D600D7018312F621E33003178D0000301E
:100E90008F0003130A2202308316D600D701831273
:100EA000F621E53003178D0000308F0003130A226E
:100EB0008316D6010330D7008312F62108000130D3
:100EC000D900E72530274F118A110A16A52A0230CA
:100ED000D9004F11E725E725EB2103308316D60013
:100EE000D7018312F621EA3003178D0000308F00FE
:100EF00003130A228A110A16392983165E08840010
:100F000083135F188317600880008312080083161C
:100F10005508F80154020318902F5408F7009C2F2D
:100F2000F7010830D600D40DF70D550877020318E5
:100F3000F700F80DD60B932F83120800DF08031D6E
:100F4000AE2F8316D601D7018312F6210C3003177A
:100F50008D0001308F0003130A22DB2F5F085C0233
:100F60000318DB2FEB215C08DD0003305C075F0218
:100F70000318C42F5F088316D4000330D5008312F2
:100F800087277708DC07C62F0330DC075D08831648
:100F9000CE0083125C0883164E020318D82F4E0829
:100FA000CF008A15831261218A118316CE0AC92FB8
:100FB00083125D08DE000800E7250330D9004F15D5
:100FC000EB218316D601D7018312F62100300317D7
:100FD0008D0001308F0003130A2201308316D600E2
:100FE000D7018312F621073003178D0001308F00DF
:0A0FF00003130A228A110A16A52A2B
:101000008316CF011030CE00CF08031D5D294E0896
:10101000E03C031C5D294E08831203178D008316E4
:101020008C130C1483120C08FF3C031956298316E9
:101030000313D3010830D200831221088316D50090
:10104000831220088316D400D408031D2A28D5084B
:1010500003192529540884008313551883170008A1
:10106000DA00DA1B182954088400831355188317F3
:10107000D308031D182952080002031C182954081C
:101080008400831355188317D9010008D800033052
:101090005207F8005308FA000318FA0A7A085902AE
:1010A000031C0329031D5828580878020318032934
:1010B00052085802DA005908DB005308031C530F8A
:1010C000DB020330DA020030031C0130DB020330A4
:1010D0005407DC005508DD000318DD0A5208DC0760
:1010E00053080318530FDD075B08DF005A08DE00C2
:1010F0005D08E1005C08E0006108E3006008E200D0
:10110000620884008313631883175E08800001302F
:1011100062078400831363188317840A80018403A1
:1011200080016208F8006308F9007908D7007808A0
:10113000D6005508DB005408DA005708DD005608D1
:10114000DC0001305A07840083135B188317840A7C
:101150000008DF0084030008DE00DE08031DBE284F
:10116000DF08031DBE2801305C07840083135D186F
:101170008317840A800184038001E22801305C0720
:10118000F8005D08FA000318FA0A7808DE007A0809
:10119000DF0001305A07840083135B188317840A29
:1011A0000008FA0084030008E0007A08E1005E0805
:1011B000840083135F188317840A61088000840306
:1011C0006008800001305A07840083135B1883177E
:1011D000840A5D08800084035C0880007F30520729
:1011E000DA005308DB000318DB0A5508DF00540857
:1011F000DE005B08E1005A08E0008A1183127D27B7
:101200008A15162983167F305807DA005908DB0043
:101210000318DB0A5508DF005408DE005B08E10014
:101220005A08E0008A1183127D278A158316252922
:10123000013054078400831355188317840A00086B
:10124000D50084030008D4002428D408031D3029C5
:10125000D508031D30290030F800F9003929392953
:1012600003305407F8005508FA000318FA0A7A0800
:10127000F9007908D1007808D0005108D900500849
:10128000D8004E08DA008A11831270248A150310E0
:101290005F0DA03E84008313840A831651088000EA
:1012A0008403500880008312DF0A0317103083166E
:1012B0000313CE070318CF0A042883128A110A16D3
:1012C0003F29013083164F07D300D4000A30D500E0
:1012D0008A11831287278A1578088316D000013077
:1012E0004F07D300D4000A30D5008A118312872714
:1012F0008A1577088316D1004F08D4000330D50033
:101300008A11831287278A1577088316D200D600A0
:10131000D7018A118312F6218A158316D008031D7E
:101320009B2930305107D200D9008A118312A321A2
:101330008A15AC29831630305007D200D9008A11A3
:101340008312A3218A15303083165107D200D900A9
:101350008A118312A3218A15093003178D000130E9
:101360008F008A1103130A228A1583164F08D200B0
:10137000D3010310520DA03E84008313840A000899
:10138000D50084030008D40053085407F80055081A
:10139000FA000318FA0A7808840083137A1883176E
:1013A00080080319F4290310520DA03E8400831312
:1013B000840A0008D50084030008D40053085407A9
:1013C000F8005508FA000318FA0A78088400831315
:1013D0007A1883170008D400D9008A118312A32138
:1013E0008A158316D30AB9290330D600D7018A118A
:1013F0008312F6218A150A3003178D0001308F0001
:101400008A1103130A228A1508008A11E7258A1512
:10141000D9014F11CF118A1125258A15080083168D
:10142000D008031D182AD108031D182A262B462A86
:1014300003305002D2005108D3000030031C0130A9
:10144000D302520884008313531883170008D60070
:10145000D61F432A520884008313531883177F3002
:101460000002D400D5015308DF005208DE00550801
:10147000E1005408E0008A1183127D278A15831643
:10148000D101D001462AD101D001262B8312210897
:101490008316D700831220088316D600D608031DB2
:1014A000542AD7080319262B56088400831357188B
:1014B00083170008DE00DE1B172B560884008313F9
:1014C00057188317DB010008DA0001305607840043
:1014D000831357188317840A0008D900840300086F
:1014E000D800580884008313591883170008DE00B9
:1014F000DE1B082B5A085607DE005708DF005B0882
:1015000003185B0FDF0703305E07F8005F08FA007F
:101510000318FA0A78085802031D082B7A085902A2
:10152000031D082B58088400831359188317DD0105
:101530000008DC0003305C07F8005D08FA000318BF
:10154000FA0A7808DA077A0803187A0FDB075908CD
:10155000DF005808DE00831221088316E1008312A1
:1015600020088316E00001306007840083136118AF
:101570008317840A0008E30084030008E2005E0881
:101580006202031DC72A5F0863020319D42A0130CF
:1015900060078400831361188317840A0008E10040
:1015A00084030008E000B32A01306007F8006108F6
:1015B000FA000318FA0A7808E2007A08E30001301A
:1015C0005E07840083135F188317840A0008FA00FB
:1015D00084030008E4007A08E500620884008313AD
:1015E00063188317840A65088000840364088000F8
:1015F000DF01DE015708DF005608DE005B08E1006E
:101600005A08E0008A1183127D278A15152B83164C
:10161000013056078400831357188317840A000883
:10162000D70084030008D6008312242B83160130D0
:1016300056078400831357188317840A0008D700BD
:1016400084030008D600831283164E2A83128A115F
:101650000A16432C8A11EB218A1501308316D60015
:10166000D7018A118312F6218A15F53003178D00F0
:1016700000308F008A1103130A228A15083083165E
:10168000CE00FA30D6008A1183128F218A15831674
:10169000CE0B412B831208008A11EB218A15831689
:1016A000D601D7018A118312F6218A15EC3003176F
:1016B0008D0000308F008A1103130A228A15013031
:1016C0008316D600D7018A118312F6218A15F330CA
:1016D00003178D0000308F008A1103130A228A1528
:0616E0008A110A16D52C48
:1020000003081F3983004F10CF10D601D7014F119D
:10201000CF11D901DA014F12DB01DC01DD01DE0154
:10202000DF01CF12FF30E80083161F149F141F1525
:102030009F1107309C008312A1016930A0000B3072
:10204000E900EB01E630EA0007308316E6000130D4
:10205000E8001030E7005D30831203179000013074
:102060009200903091005D308316900092019101B2
:10207000831203138313A201A3013130AE00323067
:10208000AF003330B0004130B1003430B2003530F1
:10209000B3003630B4004230B5003730B6003830C7
:1020A000B7003930B8004330B9002A30BA003030B8
:1020B000BB002330BC004430BD003130D200323090
:1020C000D3003330D400D501D1015230D000831673
:1020D000C101C201C301C401C501C601C701C801D4
:1020E0000A128312AE210A160A12EB210A160030D8
:1020F00083168800F030860081130A128312AE2105
:102100000A160A127E220A1631308316CA003230AD
:10211000CB003330CC00CD01D701CA30D600D80176
:102120000A128312B9220A168316D701CA30D600C2
:102130000830D8000A128312B9220A160A123D2367
:102140000A167808BE003E0FA6282B2D32308316C3
:10215000D6000A1283128F210A160A123D230A168C
:102160007808BE003E0FB5282B2D4F182629831660
:10217000CE010A128312BA230A160A122B240A1657
:102180004F1ED4280A12FD2D0A16F8080319CB2871
:102190004F14DB01CF280A12E22E0A16DB0A0A12BC
:1021A000E7250A164F114F125B08033C031D252932
:1021B0000A12EB210A1601308316D600D7010A1243
:1021C0008312F6210A16173003178D0001308F0095
:1021D0000A1203130A220A16681068088316870079
:1021E000831207148316BF010530BE00BE08031D0D
:1021F000FC28BF08031917293E08CE000230CF0083
:102200000830D0000A128312FF2E0A1604308316FB
:10221000CE00FA30D6000A1283128F210A168316D6
:10222000CE0B09293E080319BF03BE03F62883120B
:102230006810680883168700831207100A12EB21C2
:102240000A160A127E220A16DB011A2DCF1CC82C90
:10225000D908031DA62A3E08313C031D33290A1262
:102260005F2F0A16A52A3E08323C031D45290A1293
:10227000672F0A16DC01DF010A128A1500280A16E8
:102280008A110A129E270A16A52A3E08333C031D0E
:102290004D290A12DC2F0A16A52A3E08343C031DDC
:1022A0005B290A12E7250A16D9014F114F100A12AD
:1022B0007E220A16A52A3E08353C031DA52A0530B4
:1022C000D9000A12EB210A168316D601D7010A1289
:1022D0008312F6210A16213003178D0001308F007A
:1022E0000A1203130A220A16CF1E922A8316D90154
:1022F0003F30D800F030DA000A12831270240A1638
:102300008316D9016030D800F830DA000A1283123F
:1023100070240A1601308316D600D7010A128312E0
:10232000F6210A162B3003178D0001308F000A1298
:1023300003130A220A168316BF01BE013F303E076F
:10234000840083133F18831780080319BF293F08AF
:10235000FA003E08BE0A0319BF0ACE007A08CF0071
:102360003F304E07840083134F1883170008D000B6
:10237000D9000A128312A3210A1683169E2902305D
:10238000D6000430D7000A128312F6210A16013053
:102390006002F700F70E0F30F7057708303E83161E
:1023A000CE00D9000A128312A3210A16013060025E
:1023B0000F39303E8316CE00D9000A128312A321B2
:1023C0000A1620308316D9000A128312A3210A1696
:1023D00001306102F700F70E0F30F7057708303E45
:1023E0008316CE00D9000A128312A3210A160130E7
:1023F00061020F39303E8316CE00D9000A128312D3
:10240000A3210A1620308316D9000A128312A321B1
:102410000A1601306202F700F70E0F30F705770851
:10242000303E8316CE00D9000A128312A3210A1669
:10243000013062020F39303E8316CE00D9000A12F5
:102440008312A3210A1603308316D6000430D70066
:102450000A128312F6210A1601306302F700F70E02
:102460000F30F7057708303E8316CE00D9000A12E8
:102470008312A3210A16013063020F39303E8316FE
:10248000CE00D9000A128312A3210A162030831627
:10249000D9000A128312A3210A1601306402F70040
:1024A000F70E0F30F7057708303E8316CE00D900BF
:1024B0000A128312A3210A16013064020F39303E3A
:1024C0008316CE00D9000A128312A3210A162030E7
:1024D0008316D9000A128312A3210A162E3003177D
:1024E0008D0001308F000A1203130A220A160130F0
:1024F0006502F700F70E0F30F7057708303E8316B8
:10250000CE00D9000A128312A3210A1601306502F7
:102510000F39303E8316CE00D9000A128312A32150
:102520000A16A52ACF1AA52A01308316D600D7018C
:102530000A128312F6210A16303003178D0001307B
:102540008F000A1203130A220A16C52C590BA22B5C
:10255000CF19FF2A3E08443C031DEE2A0A12E2244A
:102560000A168316491078184914491CE12A0A12E0
:102570008312EB210A1601308316D600D7010A1206
:102580008312F6210A163B3003178D0001308F00AD
:102590000A1203130A220A1608308316CE00FA30F4
:1025A000D6000A1283128F210A168316CE0BCF2A69
:1025B0000A128312E7250A160A1230270A16ED2A94
:1025C00083168312CF154F1501308316D6000330C2
:1025D000D7000A128312F6210A16FE2A3E08433C4F
:1025E000031DF82A0A128A1505220A168A11FE2AE4
:1025F0008316CE010A128312BA230A16A12B3E08B3
:10260000443C031D942BD7080319932B8316BF0159
:102610001030BE00BF08031D252B3E08E03C031C04
:10262000252B3E08831203178D0083168C130C1480
:1026300083120C0883160313C000400F202B252B98
:102640001030BE070318BF0A0A2BBF08031D6E2BEC
:102650003E08E03C031C6E2BD7013F30D6003E08FD
:10266000D8000A128312B9220A16083083163E07D0
:10267000CE003F08CF000318CF0AD7014730D6005D
:102680004E08D8000A128312B9220A160A12EB2148
:102690000A1601308316D600D7010A128312F621DA
:1026A0000A16443003178D0001308F000A120313FD
:1026B0000A220A1608308316CE00FA30D6000A1213
:1026C00083128F210A168316CE0B5D2B8312D9013C
:1026D000CF110A1225250A16932B83160A1283128C
:1026E000EB210A1601308316D600D7010A12831295
:1026F000F6210A164F3003178D0001308F000A12A1
:1027000003130A220A1604308316CE00FA30D600CC
:102710000A1283128F210A168316CE0B862B0A12F9
:10272000831225250A16A12B3E08433C031D9E2B30
:102730000A128A1505220A168A11A12B0A122B24C5
:102740000A16C52C5908023C031D892C3E08443C3E
:10275000031D172C0A12E2240A16F8080319F12B9C
:102760008316D9013F30D800831251088316DB004D
:10277000831250088316DA000A1283129C240A1668
:10278000F8080319F12B8316D701C130D600831244
:1027900058088316D8000A128312B9220A16083084
:1027A00058078316CE00D701C130D6004E08D80096
:1027B0000A128312B9220A160A12EB210A160130F4
:1027C0008316D600D7010A128312F6210A16573053
:1027D00003178D0001308F000A1203130A220A1614
:1027E000052C0A12EB210A1601308316D600D701F8
:1027F0000A128312F6210A16613003178D00013088
:102800008F000A1203130A220A16D9010830831610
:10281000CE00FA30D6000A1283128F210A168316D0
:10282000CE0B092C0A12831225250A16862C3E0887
:10283000433C031D4C2C0A128A1505220A168A11E4
:102840008316BF01BE01BF08031D4A2C3E08093C88
:10285000031C4A2C03103E0DF9003F0DFA007908C5
:10286000A03E840083137A188317840A0008CF00DF
:1028700084030008CE004F08D1004E08D0000A1291
:102880008A1583120F2A0A168A118316BE0A0319A3
:10289000BF0A232C872C83123E08423C031D542C74
:1028A0000A129E270A16862C3E08413C031D7F2CE7
:1028B000DE0803197E2C0A12EB210A1603305E0291
:1028C0008316BE00BF01BF08031D792C83125E086A
:1028D00083163E020318792C3E08CF000A128A158F
:1028E000831261210A168A118316BE0A0319BF0AD0
:1028F000632C83125E08DC000330DE02862C03307A
:102900008316CE000A128312BA230A168316C62C27
:1029100083125908033C031DB82C3E08443C031D98
:10292000AA2C473057078400831380018316D701F0
:102930004730D6000830D8000A128312B9220A168E
:102940000A128A152A230A168A11D9010A12252584
:102950000A16B72C3E08433C031DB42C0A128A15F4
:1029600005220A168A11B72C0A122B240A16C52C26
:102970005908053C031DC52C3E08433C031DC52CCE
:102980000A128A1505220A168A1183161B2D831234
:10299000DA08031DE92C3E08313C031DDB2C0A122A
:1029A000E7250A160A128A154C2B0A168A114F15AA
:1029B0000130DA00E82C3E08323C031DE82C0A12F4
:1029C000E7250A16DA014F114F100A127E220A1665
:1029D0001A2D5A0B1A2D3E08443C031D0B2D47306F
:1029E0005707840083138001083058078316CE00F0
:1029F000D7014730D6004E08D8000A128312B922F8
:102A00000A160A128A152A230A168A110A12BE25E4
:102A10000A16DA011A2D3E08433C031D172D0A122F
:102A2000E7250A16DA010A12BE250A161A2D0A121D
:102A30002B240A1683160A1283123D230A16780FD6
:102A4000222D242D83161B2D32308316D6000A1218
:0A2A500083128F210A169E286300EE
:02400E00723FFF
:00000001FF
;PIC16F877A
;CRC=984D  CREATED="04-Apr-19 15:41"
